{"contracts/Prescriptions.sol":{"Prescriptions":{"abi":[{"inputs":[{"internalType":"address","name":"_roleManagementAddr","type":"address"}],"stateMutability":"nonpayable","type":"constructor"},{"anonymous":false,"inputs":[{"indexed":true,"internalType":"address","name":"patient","type":"address"},{"indexed":true,"internalType":"bytes32","name":"prescr_id","type":"bytes32"},{"indexed":true,"internalType":"address","name":"doctor","type":"address"},{"indexed":false,"internalType":"string","name":"signature","type":"string"}],"name":"prescriptionIssued","type":"event"},{"inputs":[{"internalType":"address","name":"_patient","type":"address"},{"internalType":"bool","name":"_unused","type":"bool"}],"name":"getPatientPrescriptions","outputs":[{"components":[{"internalType":"bytes32","name":"id","type":"bytes32"},{"internalType":"string","name":"encryptedData","type":"string"},{"internalType":"bool","name":"isUsed","type":"bool"}],"internalType":"struct Prescriptions.Prescription[]","name":"","type":"tuple[]"}],"stateMutability":"view","type":"function"},{"inputs":[{"internalType":"address","name":"_patient","type":"address"},{"internalType":"string","name":"_encryptedData","type":"string"},{"internalType":"string","name":"_signature","type":"string"}],"name":"issuePrescription","outputs":[],"stateMutability":"nonpayable","type":"function"},{"inputs":[{"internalType":"bytes32","name":"_prescrID","type":"bytes32"}],"name":"markAsUsed","outputs":[],"stateMutability":"nonpayable","type":"function"},{"inputs":[{"internalType":"address","name":"","type":"address"},{"internalType":"uint256","name":"","type":"uint256"}],"name":"patientPrescriptions","outputs":[{"internalType":"bytes32","name":"","type":"bytes32"}],"stateMutability":"view","type":"function"},{"inputs":[{"internalType":"bytes32","name":"","type":"bytes32"}],"name":"prescriptions","outputs":[{"internalType":"bytes32","name":"id","type":"bytes32"},{"internalType":"string","name":"encryptedData","type":"string"},{"internalType":"bool","name":"isUsed","type":"bool"}],"stateMutability":"view","type":"function"},{"inputs":[],"name":"roleManagement","outputs":[{"internalType":"contract IRoleManagement","name":"","type":"address"}],"stateMutability":"view","type":"function"}],"evm":{"bytecode":{"linkReferences":{},"object":"608060405234801561001057600080fd5b50604051611d1b380380611d1b833981810160405281019061003291906100db565b806000806101000a81548173ffffffffffffffffffffffffffffffffffffffff021916908373ffffffffffffffffffffffffffffffffffffffff16021790555050610108565b600080fd5b600073ffffffffffffffffffffffffffffffffffffffff82169050919050565b60006100a88261007d565b9050919050565b6100b88161009d565b81146100c357600080fd5b50565b6000815190506100d5816100af565b92915050565b6000602082840312156100f1576100f0610078565b5b60006100ff848285016100c6565b91505092915050565b611c04806101176000396000f3fe608060405234801561001057600080fd5b50600436106100625760003560e01c806305dac5931461006757806312c2147214610083578063733ba56d1461009f5780637b464e93146100cf578063b71b71c514610101578063b977ba1814610131575b600080fd5b610081600480360381019061007c9190610d49565b61014f565b005b61009d60048036038101906100989190610f1a565b61034b565b005b6100b960048036038101906100b49190610fdb565b6105cc565b6040516100c6919061102a565b60405180910390f35b6100e960048036038101906100e49190610d49565b6105fd565b6040516100f8939291906110df565b60405180910390f35b61011b60048036038101906101169190611149565b6106bc565b6040516101289190611303565b60405180910390f35b6101396108f9565b6040516101469190611384565b60405180910390f35b600033905060008060009054906101000a900473ffffffffffffffffffffffffffffffffffffffff1673ffffffffffffffffffffffffffffffffffffffff166344276733836040518263ffffffff1660e01b81526004016101b091906113ae565b602060405180830381865afa1580156101cd573d6000803e3d6000fd5b505050506040513d601f19601f820116820180604052508101906101f191906113de565b905060405160200161020290611462565b604051602081830303815290604052805190602001208114610259576040517f08c379a0000000000000000000000000000000000000000000000000000000008152600401610250906114e9565b60405180910390fd5b6000801b6001600085815260200190815260200160002060000154036102b4576040517f08c379a00000000000000000000000000000000000000000000000000000000081526004016102ab90611555565b60405180910390fd5b6001600084815260200190815260200160002060020160009054906101000a900460ff1615610318576040517f08c379a000000000000000000000000000000000000000000000000000000000815260040161030f906115e7565b60405180910390fd5b600180600085815260200190815260200160002060020160006101000a81548160ff021916908315150217905550505050565b600033905060008060009054906101000a900473ffffffffffffffffffffffffffffffffffffffff1673ffffffffffffffffffffffffffffffffffffffff166344276733836040518263ffffffff1660e01b81526004016103ac91906113ae565b602060405180830381865afa1580156103c9573d6000803e3d6000fd5b505050506040513d601f19601f820116820180604052508101906103ed91906113de565b90506040516020016103fe90611653565b604051602081830303815290604052805190602001208114610455576040517f08c379a000000000000000000000000000000000000000000000000000000000815260040161044c906116da565b60405180910390fd5b600085433360405160200161046c93929190611763565b604051602081830303815290604052805190602001209050604051806060016040528082815260200186815260200160001515815250600160008381526020019081526020016000206000820151816000015560208201518160010190816104d491906119a2565b5060408201518160020160006101000a81548160ff021916908315150217905550905050600260008773ffffffffffffffffffffffffffffffffffffffff1673ffffffffffffffffffffffffffffffffffffffff1681526020019081526020016000208190806001815401808255809150506001900390600052602060002001600090919091909150553373ffffffffffffffffffffffffffffffffffffffff16818773ffffffffffffffffffffffffffffffffffffffff167ff9e94386c07f90811a74d5baffa05a715aa4d7975477315a2f45187ec1a6d5ca876040516105bc9190611a74565b60405180910390a4505050505050565b600260205281600052604060002081815481106105e857600080fd5b90600052602060002001600091509150505481565b6001602052806000526040600020600091509050806000015490806001018054610626906117cf565b80601f0160208091040260200160405190810160405280929190818152602001828054610652906117cf565b801561069f5780601f106106745761010080835404028352916020019161069f565b820191906000526020600020905b81548152906001019060200180831161068257829003601f168201915b5050505050908060020160009054906101000a900460ff16905083565b606082600033905060008060009054906101000a900473ffffffffffffffffffffffffffffffffffffffff1673ffffffffffffffffffffffffffffffffffffffff166344276733836040518263ffffffff1660e01b815260040161072091906113ae565b602060405180830381865afa15801561073d573d6000803e3d6000fd5b505050506040513d601f19601f8201168201806040525081019061076191906113de565b905060405160200161077290611462565b604051602081830303815290604052805190602001208114806107b8575060405160200161079f90611653565b6040516020818303038152906040528051906020012081145b806107fc57506000801b811480156107fb57508173ffffffffffffffffffffffffffffffffffffffff168373ffffffffffffffffffffffffffffffffffffffff16145b5b61083b576040517f08c379a000000000000000000000000000000000000000000000000000000000815260040161083290611b08565b60405180910390fd5b606085156108535761084c8761091d565b90506108e4565b600260008873ffffffffffffffffffffffffffffffffffffffff1673ffffffffffffffffffffffffffffffffffffffff1681526020019081526020016000208054806020026020016040519081016040528092919081815260200182805480156108dc57602002820191906000526020600020905b8154815260200190600101908083116108c8575b505050505090505b6108ed81610b43565b94505050505092915050565b60008054906101000a900473ffffffffffffffffffffffffffffffffffffffff1681565b60606000600260008473ffffffffffffffffffffffffffffffffffffffff1673ffffffffffffffffffffffffffffffffffffffff1681526020019081526020016000208054905090506000805b82811015610a17576000600260008773ffffffffffffffffffffffffffffffffffffffff1673ffffffffffffffffffffffffffffffffffffffff16815260200190815260200160002082815481106109c5576109c4611b28565b5b906000526020600020015490506001600082815260200190815260200160002060020160009054906101000a900460ff16610a09578280610a0590611b86565b9350505b50808060010191505061096a565b5060008167ffffffffffffffff811115610a3457610a33610def565b5b604051908082528060200260200182016040528015610a625781602001602082028036833780820191505090505b5090506000805b84811015610b36576000600260008973ffffffffffffffffffffffffffffffffffffffff1673ffffffffffffffffffffffffffffffffffffffff1681526020019081526020016000208281548110610ac457610ac3611b28565b5b906000526020600020015490506001600082815260200190815260200160002060020160009054906101000a900460ff16610b285780848481518110610b0d57610b0c611b28565b5b6020026020010181815250508280610b2490611b86565b9350505b508080600101915050610a69565b5081945050505050919050565b606060008251905060008167ffffffffffffffff811115610b6757610b66610def565b5b604051908082528060200260200182016040528015610ba057816020015b610b8d610cd9565b815260200190600190039081610b855790505b50905060005b82811015610cce576000858281518110610bc357610bc2611b28565b5b602002602001015190506001600082815260200190815260200160002060405180606001604052908160008201548152602001600182018054610c05906117cf565b80601f0160208091040260200160405190810160405280929190818152602001828054610c31906117cf565b8015610c7e5780601f10610c5357610100808354040283529160200191610c7e565b820191906000526020600020905b815481529060010190602001808311610c6157829003601f168201915b505050505081526020016002820160009054906101000a900460ff161515151581525050838381518110610cb557610cb4611b28565b5b6020026020010181905250508080600101915050610ba6565b508092505050919050565b604051806060016040528060008019168152602001606081526020016000151581525090565b6000604051905090565b600080fd5b600080fd5b6000819050919050565b610d2681610d13565b8114610d3157600080fd5b50565b600081359050610d4381610d1d565b92915050565b600060208284031215610d5f57610d5e610d09565b5b6000610d6d84828501610d34565b91505092915050565b600073ffffffffffffffffffffffffffffffffffffffff82169050919050565b6000610da182610d76565b9050919050565b610db181610d96565b8114610dbc57600080fd5b50565b600081359050610dce81610da8565b92915050565b600080fd5b600080fd5b6000601f19601f8301169050919050565b7f4e487b7100000000000000000000000000000000000000000000000000000000600052604160045260246000fd5b610e2782610dde565b810181811067ffffffffffffffff82111715610e4657610e45610def565b5b80604052505050565b6000610e59610cff565b9050610e658282610e1e565b919050565b600067ffffffffffffffff821115610e8557610e84610def565b5b610e8e82610dde565b9050602081019050919050565b82818337600083830152505050565b6000610ebd610eb884610e6a565b610e4f565b905082815260208101848484011115610ed957610ed8610dd9565b5b610ee4848285610e9b565b509392505050565b600082601f830112610f0157610f00610dd4565b5b8135610f11848260208601610eaa565b91505092915050565b600080600060608486031215610f3357610f32610d09565b5b6000610f4186828701610dbf565b935050602084013567ffffffffffffffff811115610f6257610f61610d0e565b5b610f6e86828701610eec565b925050604084013567ffffffffffffffff811115610f8f57610f8e610d0e565b5b610f9b86828701610eec565b9150509250925092565b6000819050919050565b610fb881610fa5565b8114610fc357600080fd5b50565b600081359050610fd581610faf565b92915050565b60008060408385031215610ff257610ff1610d09565b5b600061100085828601610dbf565b925050602061101185828601610fc6565b9150509250929050565b61102481610d13565b82525050565b600060208201905061103f600083018461101b565b92915050565b600081519050919050565b600082825260208201905092915050565b60005b8381101561107f578082015181840152602081019050611064565b60008484015250505050565b600061109682611045565b6110a08185611050565b93506110b0818560208601611061565b6110b981610dde565b840191505092915050565b60008115159050919050565b6110d9816110c4565b82525050565b60006060820190506110f4600083018661101b565b8181036020830152611106818561108b565b905061111560408301846110d0565b949350505050565b611126816110c4565b811461113157600080fd5b50565b6000813590506111438161111d565b92915050565b600080604083850312156111605761115f610d09565b5b600061116e85828601610dbf565b925050602061117f85828601611134565b9150509250929050565b600081519050919050565b600082825260208201905092915050565b6000819050602082019050919050565b6111be81610d13565b82525050565b600082825260208201905092915050565b60006111e082611045565b6111ea81856111c4565b93506111fa818560208601611061565b61120381610dde565b840191505092915050565b611217816110c4565b82525050565b600060608301600083015161123560008601826111b5565b506020830151848203602086015261124d82826111d5565b9150506040830151611262604086018261120e565b508091505092915050565b6000611279838361121d565b905092915050565b6000602082019050919050565b600061129982611189565b6112a38185611194565b9350836020820285016112b5856111a5565b8060005b858110156112f157848403895281516112d2858261126d565b94506112dd83611281565b925060208a019950506001810190506112b9565b50829750879550505050505092915050565b6000602082019050818103600083015261131d818461128e565b905092915050565b6000819050919050565b600061134a61134561134084610d76565b611325565b610d76565b9050919050565b600061135c8261132f565b9050919050565b600061136e82611351565b9050919050565b61137e81611363565b82525050565b60006020820190506113996000830184611375565b92915050565b6113a881610d96565b82525050565b60006020820190506113c3600083018461139f565b92915050565b6000815190506113d881610d1d565b92915050565b6000602082840312156113f4576113f3610d09565b5b6000611402848285016113c9565b91505092915050565b600081905092915050565b7f706861726d616369737400000000000000000000000000000000000000000000600082015250565b600061144c600a8361140b565b915061145782611416565b600a82019050919050565b600061146d8261143f565b9150819050919050565b7f4f6e6c79206120706861726d61636973742063616e206d61726b20612070726560008201527f736372697074696f6e2061732075736564210000000000000000000000000000602082015250565b60006114d3603283611050565b91506114de82611477565b604082019050919050565b60006020820190508181036000830152611502816114c6565b9050919050565b7f507265736372697074696f6e20646f65736e2774206578697374210000000000600082015250565b600061153f601b83611050565b915061154a82611509565b602082019050919050565b6000602082019050818103600083015261156e81611532565b9050919050565b7f507265736372697074696f6e20686173206265656e20616c726561647920757360008201527f6564210000000000000000000000000000000000000000000000000000000000602082015250565b60006115d1602383611050565b91506115dc82611575565b604082019050919050565b60006020820190508181036000830152611600816115c4565b9050919050565b7f646f63746f720000000000000000000000000000000000000000000000000000600082015250565b600061163d60068361140b565b915061164882611607565b600682019050919050565b600061165e82611630565b9150819050919050565b7f4f6e6c79206120646f63746f722063616e20777269746520612070726573637260008201527f697074696f6e2100000000000000000000000000000000000000000000000000602082015250565b60006116c4602783611050565b91506116cf82611668565b604082019050919050565b600060208201905081810360008301526116f3816116b7565b9050919050565b60008160601b9050919050565b6000611712826116fa565b9050919050565b600061172482611707565b9050919050565b61173c61173782610d96565b611719565b82525050565b6000819050919050565b61175d61175882610fa5565b611742565b82525050565b600061176f828661172b565b60148201915061177f828561174c565b60208201915061178f828461172b565b601482019150819050949350505050565b7f4e487b7100000000000000000000000000000000000000000000000000000000600052602260045260246000fd5b600060028204905060018216806117e757607f821691505b6020821081036117fa576117f96117a0565b5b50919050565b60008190508160005260206000209050919050565b60006020601f8301049050919050565b600082821b905092915050565b6000600883026118627fffffffffffffffffffffffffffffffffffffffffffffffffffffffffffffffff82611825565b61186c8683611825565b95508019841693508086168417925050509392505050565b600061189f61189a61189584610fa5565b611325565b610fa5565b9050919050565b6000819050919050565b6118b983611884565b6118cd6118c5826118a6565b848454611832565b825550505050565b600090565b6118e26118d5565b6118ed8184846118b0565b505050565b5b81811015611911576119066000826118da565b6001810190506118f3565b5050565b601f8211156119565761192781611800565b61193084611815565b8101602085101561193f578190505b61195361194b85611815565b8301826118f2565b50505b505050565b600082821c905092915050565b60006119796000198460080261195b565b1980831691505092915050565b60006119928383611968565b9150826002028217905092915050565b6119ab82611045565b67ffffffffffffffff8111156119c4576119c3610def565b5b6119ce82546117cf565b6119d9828285611915565b600060209050601f831160018114611a0c57600084156119fa578287015190505b611a048582611986565b865550611a6c565b601f198416611a1a86611800565b60005b82811015611a4257848901518255600182019150602085019450602081019050611a1d565b86831015611a5f5784890151611a5b601f891682611968565b8355505b6001600288020188555050505b505050505050565b60006020820190508181036000830152611a8e818461108b565b905092915050565b7f596f752068617665206e6f7420746865207065726d697373696f6e20746f206160008201527f6363657373207468697320707265736372697074696f6e210000000000000000602082015250565b6000611af2603883611050565b9150611afd82611a96565b604082019050919050565b60006020820190508181036000830152611b2181611ae5565b9050919050565b7f4e487b7100000000000000000000000000000000000000000000000000000000600052603260045260246000fd5b7f4e487b7100000000000000000000000000000000000000000000000000000000600052601160045260246000fd5b6000611b9182610fa5565b91507fffffffffffffffffffffffffffffffffffffffffffffffffffffffffffffffff8203611bc357611bc2611b57565b5b60018201905091905056fea2646970667358221220ae72a391f256f62a716d893cede6e2c67fa6a1bac2141360a65748e5d87e8af764736f6c634300081c0033","opcodes":"PUSH1 0x80 PUSH1 0x40 MSTORE CALLVALUE DUP1 ISZERO PUSH2 0x10 JUMPI PUSH1 0x0 DUP1 REVERT JUMPDEST POP PUSH1 0x40 MLOAD PUSH2 0x1D1B CODESIZE SUB DUP1 PUSH2 0x1D1B DUP4 CODECOPY DUP2 DUP2 ADD PUSH1 0x40 MSTORE DUP2 ADD SWAP1 PUSH2 0x32 SWAP2 SWAP1 PUSH2 0xDB JUMP JUMPDEST DUP1 PUSH1 0x0 DUP1 PUSH2 0x100 EXP DUP2 SLOAD DUP2 PUSH20 0xFFFFFFFFFFFFFFFFFFFFFFFFFFFFFFFFFFFFFFFF MUL NOT AND SWAP1 DUP4 PUSH20 0xFFFFFFFFFFFFFFFFFFFFFFFFFFFFFFFFFFFFFFFF AND MUL OR SWAP1 SSTORE POP POP PUSH2 0x108 JUMP JUMPDEST PUSH1 0x0 DUP1 REVERT JUMPDEST PUSH1 0x0 PUSH20 0xFFFFFFFFFFFFFFFFFFFFFFFFFFFFFFFFFFFFFFFF DUP3 AND SWAP1 POP SWAP2 SWAP1 POP JUMP JUMPDEST PUSH1 0x0 PUSH2 0xA8 DUP3 PUSH2 0x7D JUMP JUMPDEST SWAP1 POP SWAP2 SWAP1 POP JUMP JUMPDEST PUSH2 0xB8 DUP2 PUSH2 0x9D JUMP JUMPDEST DUP2 EQ PUSH2 0xC3 JUMPI PUSH1 0x0 DUP1 REVERT JUMPDEST POP JUMP JUMPDEST PUSH1 0x0 DUP2 MLOAD SWAP1 POP PUSH2 0xD5 DUP2 PUSH2 0xAF JUMP JUMPDEST SWAP3 SWAP2 POP POP JUMP JUMPDEST PUSH1 0x0 PUSH1 0x20 DUP3 DUP5 SUB SLT ISZERO PUSH2 0xF1 JUMPI PUSH2 0xF0 PUSH2 0x78 JUMP JUMPDEST JUMPDEST PUSH1 0x0 PUSH2 0xFF DUP5 DUP3 DUP6 ADD PUSH2 0xC6 JUMP JUMPDEST SWAP2 POP POP SWAP3 SWAP2 POP POP JUMP JUMPDEST PUSH2 0x1C04 DUP1 PUSH2 0x117 PUSH1 0x0 CODECOPY PUSH1 0x0 RETURN INVALID PUSH1 0x80 PUSH1 0x40 MSTORE CALLVALUE DUP1 ISZERO PUSH2 0x10 JUMPI PUSH1 0x0 DUP1 REVERT JUMPDEST POP PUSH1 0x4 CALLDATASIZE LT PUSH2 0x62 JUMPI PUSH1 0x0 CALLDATALOAD PUSH1 0xE0 SHR DUP1 PUSH4 0x5DAC593 EQ PUSH2 0x67 JUMPI DUP1 PUSH4 0x12C21472 EQ PUSH2 0x83 JUMPI DUP1 PUSH4 0x733BA56D EQ PUSH2 0x9F JUMPI DUP1 PUSH4 0x7B464E93 EQ PUSH2 0xCF JUMPI DUP1 PUSH4 0xB71B71C5 EQ PUSH2 0x101 JUMPI DUP1 PUSH4 0xB977BA18 EQ PUSH2 0x131 JUMPI JUMPDEST PUSH1 0x0 DUP1 REVERT JUMPDEST PUSH2 0x81 PUSH1 0x4 DUP1 CALLDATASIZE SUB DUP2 ADD SWAP1 PUSH2 0x7C SWAP2 SWAP1 PUSH2 0xD49 JUMP JUMPDEST PUSH2 0x14F JUMP JUMPDEST STOP JUMPDEST PUSH2 0x9D PUSH1 0x4 DUP1 CALLDATASIZE SUB DUP2 ADD SWAP1 PUSH2 0x98 SWAP2 SWAP1 PUSH2 0xF1A JUMP JUMPDEST PUSH2 0x34B JUMP JUMPDEST STOP JUMPDEST PUSH2 0xB9 PUSH1 0x4 DUP1 CALLDATASIZE SUB DUP2 ADD SWAP1 PUSH2 0xB4 SWAP2 SWAP1 PUSH2 0xFDB JUMP JUMPDEST PUSH2 0x5CC JUMP JUMPDEST PUSH1 0x40 MLOAD PUSH2 0xC6 SWAP2 SWAP1 PUSH2 0x102A JUMP JUMPDEST PUSH1 0x40 MLOAD DUP1 SWAP2 SUB SWAP1 RETURN JUMPDEST PUSH2 0xE9 PUSH1 0x4 DUP1 CALLDATASIZE SUB DUP2 ADD SWAP1 PUSH2 0xE4 SWAP2 SWAP1 PUSH2 0xD49 JUMP JUMPDEST PUSH2 0x5FD JUMP JUMPDEST PUSH1 0x40 MLOAD PUSH2 0xF8 SWAP4 SWAP3 SWAP2 SWAP1 PUSH2 0x10DF JUMP JUMPDEST PUSH1 0x40 MLOAD DUP1 SWAP2 SUB SWAP1 RETURN JUMPDEST PUSH2 0x11B PUSH1 0x4 DUP1 CALLDATASIZE SUB DUP2 ADD SWAP1 PUSH2 0x116 SWAP2 SWAP1 PUSH2 0x1149 JUMP JUMPDEST PUSH2 0x6BC JUMP JUMPDEST PUSH1 0x40 MLOAD PUSH2 0x128 SWAP2 SWAP1 PUSH2 0x1303 JUMP JUMPDEST PUSH1 0x40 MLOAD DUP1 SWAP2 SUB SWAP1 RETURN JUMPDEST PUSH2 0x139 PUSH2 0x8F9 JUMP JUMPDEST PUSH1 0x40 MLOAD PUSH2 0x146 SWAP2 SWAP1 PUSH2 0x1384 JUMP JUMPDEST PUSH1 0x40 MLOAD DUP1 SWAP2 SUB SWAP1 RETURN JUMPDEST PUSH1 0x0 CALLER SWAP1 POP PUSH1 0x0 DUP1 PUSH1 0x0 SWAP1 SLOAD SWAP1 PUSH2 0x100 EXP SWAP1 DIV PUSH20 0xFFFFFFFFFFFFFFFFFFFFFFFFFFFFFFFFFFFFFFFF AND PUSH20 0xFFFFFFFFFFFFFFFFFFFFFFFFFFFFFFFFFFFFFFFF AND PUSH4 0x44276733 DUP4 PUSH1 0x40 MLOAD DUP3 PUSH4 0xFFFFFFFF AND PUSH1 0xE0 SHL DUP2 MSTORE PUSH1 0x4 ADD PUSH2 0x1B0 SWAP2 SWAP1 PUSH2 0x13AE JUMP JUMPDEST PUSH1 0x20 PUSH1 0x40 MLOAD DUP1 DUP4 SUB DUP2 DUP7 GAS STATICCALL ISZERO DUP1 ISZERO PUSH2 0x1CD JUMPI RETURNDATASIZE PUSH1 0x0 DUP1 RETURNDATACOPY RETURNDATASIZE PUSH1 0x0 REVERT JUMPDEST POP POP POP POP PUSH1 0x40 MLOAD RETURNDATASIZE PUSH1 0x1F NOT PUSH1 0x1F DUP3 ADD AND DUP3 ADD DUP1 PUSH1 0x40 MSTORE POP DUP2 ADD SWAP1 PUSH2 0x1F1 SWAP2 SWAP1 PUSH2 0x13DE JUMP JUMPDEST SWAP1 POP PUSH1 0x40 MLOAD PUSH1 0x20 ADD PUSH2 0x202 SWAP1 PUSH2 0x1462 JUMP JUMPDEST PUSH1 0x40 MLOAD PUSH1 0x20 DUP2 DUP4 SUB SUB DUP2 MSTORE SWAP1 PUSH1 0x40 MSTORE DUP1 MLOAD SWAP1 PUSH1 0x20 ADD KECCAK256 DUP2 EQ PUSH2 0x259 JUMPI PUSH1 0x40 MLOAD PUSH32 0x8C379A000000000000000000000000000000000000000000000000000000000 DUP2 MSTORE PUSH1 0x4 ADD PUSH2 0x250 SWAP1 PUSH2 0x14E9 JUMP JUMPDEST PUSH1 0x40 MLOAD DUP1 SWAP2 SUB SWAP1 REVERT JUMPDEST PUSH1 0x0 DUP1 SHL PUSH1 0x1 PUSH1 0x0 DUP6 DUP2 MSTORE PUSH1 0x20 ADD SWAP1 DUP2 MSTORE PUSH1 0x20 ADD PUSH1 0x0 KECCAK256 PUSH1 0x0 ADD SLOAD SUB PUSH2 0x2B4 JUMPI PUSH1 0x40 MLOAD PUSH32 0x8C379A000000000000000000000000000000000000000000000000000000000 DUP2 MSTORE PUSH1 0x4 ADD PUSH2 0x2AB SWAP1 PUSH2 0x1555 JUMP JUMPDEST PUSH1 0x40 MLOAD DUP1 SWAP2 SUB SWAP1 REVERT JUMPDEST PUSH1 0x1 PUSH1 0x0 DUP5 DUP2 MSTORE PUSH1 0x20 ADD SWAP1 DUP2 MSTORE PUSH1 0x20 ADD PUSH1 0x0 KECCAK256 PUSH1 0x2 ADD PUSH1 0x0 SWAP1 SLOAD SWAP1 PUSH2 0x100 EXP SWAP1 DIV PUSH1 0xFF AND ISZERO PUSH2 0x318 JUMPI PUSH1 0x40 MLOAD PUSH32 0x8C379A000000000000000000000000000000000000000000000000000000000 DUP2 MSTORE PUSH1 0x4 ADD PUSH2 0x30F SWAP1 PUSH2 0x15E7 JUMP JUMPDEST PUSH1 0x40 MLOAD DUP1 SWAP2 SUB SWAP1 REVERT JUMPDEST PUSH1 0x1 DUP1 PUSH1 0x0 DUP6 DUP2 MSTORE PUSH1 0x20 ADD SWAP1 DUP2 MSTORE PUSH1 0x20 ADD PUSH1 0x0 KECCAK256 PUSH1 0x2 ADD PUSH1 0x0 PUSH2 0x100 EXP DUP2 SLOAD DUP2 PUSH1 0xFF MUL NOT AND SWAP1 DUP4 ISZERO ISZERO MUL OR SWAP1 SSTORE POP POP POP POP JUMP JUMPDEST PUSH1 0x0 CALLER SWAP1 POP PUSH1 0x0 DUP1 PUSH1 0x0 SWAP1 SLOAD SWAP1 PUSH2 0x100 EXP SWAP1 DIV PUSH20 0xFFFFFFFFFFFFFFFFFFFFFFFFFFFFFFFFFFFFFFFF AND PUSH20 0xFFFFFFFFFFFFFFFFFFFFFFFFFFFFFFFFFFFFFFFF AND PUSH4 0x44276733 DUP4 PUSH1 0x40 MLOAD DUP3 PUSH4 0xFFFFFFFF AND PUSH1 0xE0 SHL DUP2 MSTORE PUSH1 0x4 ADD PUSH2 0x3AC SWAP2 SWAP1 PUSH2 0x13AE JUMP JUMPDEST PUSH1 0x20 PUSH1 0x40 MLOAD DUP1 DUP4 SUB DUP2 DUP7 GAS STATICCALL ISZERO DUP1 ISZERO PUSH2 0x3C9 JUMPI RETURNDATASIZE PUSH1 0x0 DUP1 RETURNDATACOPY RETURNDATASIZE PUSH1 0x0 REVERT JUMPDEST POP POP POP POP PUSH1 0x40 MLOAD RETURNDATASIZE PUSH1 0x1F NOT PUSH1 0x1F DUP3 ADD AND DUP3 ADD DUP1 PUSH1 0x40 MSTORE POP DUP2 ADD SWAP1 PUSH2 0x3ED SWAP2 SWAP1 PUSH2 0x13DE JUMP JUMPDEST SWAP1 POP PUSH1 0x40 MLOAD PUSH1 0x20 ADD PUSH2 0x3FE SWAP1 PUSH2 0x1653 JUMP JUMPDEST PUSH1 0x40 MLOAD PUSH1 0x20 DUP2 DUP4 SUB SUB DUP2 MSTORE SWAP1 PUSH1 0x40 MSTORE DUP1 MLOAD SWAP1 PUSH1 0x20 ADD KECCAK256 DUP2 EQ PUSH2 0x455 JUMPI PUSH1 0x40 MLOAD PUSH32 0x8C379A000000000000000000000000000000000000000000000000000000000 DUP2 MSTORE PUSH1 0x4 ADD PUSH2 0x44C SWAP1 PUSH2 0x16DA JUMP JUMPDEST PUSH1 0x40 MLOAD DUP1 SWAP2 SUB SWAP1 REVERT JUMPDEST PUSH1 0x0 DUP6 NUMBER CALLER PUSH1 0x40 MLOAD PUSH1 0x20 ADD PUSH2 0x46C SWAP4 SWAP3 SWAP2 SWAP1 PUSH2 0x1763 JUMP JUMPDEST PUSH1 0x40 MLOAD PUSH1 0x20 DUP2 DUP4 SUB SUB DUP2 MSTORE SWAP1 PUSH1 0x40 MSTORE DUP1 MLOAD SWAP1 PUSH1 0x20 ADD KECCAK256 SWAP1 POP PUSH1 0x40 MLOAD DUP1 PUSH1 0x60 ADD PUSH1 0x40 MSTORE DUP1 DUP3 DUP2 MSTORE PUSH1 0x20 ADD DUP7 DUP2 MSTORE PUSH1 0x20 ADD PUSH1 0x0 ISZERO ISZERO DUP2 MSTORE POP PUSH1 0x1 PUSH1 0x0 DUP4 DUP2 MSTORE PUSH1 0x20 ADD SWAP1 DUP2 MSTORE PUSH1 0x20 ADD PUSH1 0x0 KECCAK256 PUSH1 0x0 DUP3 ADD MLOAD DUP2 PUSH1 0x0 ADD SSTORE PUSH1 0x20 DUP3 ADD MLOAD DUP2 PUSH1 0x1 ADD SWAP1 DUP2 PUSH2 0x4D4 SWAP2 SWAP1 PUSH2 0x19A2 JUMP JUMPDEST POP PUSH1 0x40 DUP3 ADD MLOAD DUP2 PUSH1 0x2 ADD PUSH1 0x0 PUSH2 0x100 EXP DUP2 SLOAD DUP2 PUSH1 0xFF MUL NOT AND SWAP1 DUP4 ISZERO ISZERO MUL OR SWAP1 SSTORE POP SWAP1 POP POP PUSH1 0x2 PUSH1 0x0 DUP8 PUSH20 0xFFFFFFFFFFFFFFFFFFFFFFFFFFFFFFFFFFFFFFFF AND PUSH20 0xFFFFFFFFFFFFFFFFFFFFFFFFFFFFFFFFFFFFFFFF AND DUP2 MSTORE PUSH1 0x20 ADD SWAP1 DUP2 MSTORE PUSH1 0x20 ADD PUSH1 0x0 KECCAK256 DUP2 SWAP1 DUP1 PUSH1 0x1 DUP2 SLOAD ADD DUP1 DUP3 SSTORE DUP1 SWAP2 POP POP PUSH1 0x1 SWAP1 SUB SWAP1 PUSH1 0x0 MSTORE PUSH1 0x20 PUSH1 0x0 KECCAK256 ADD PUSH1 0x0 SWAP1 SWAP2 SWAP1 SWAP2 SWAP1 SWAP2 POP SSTORE CALLER PUSH20 0xFFFFFFFFFFFFFFFFFFFFFFFFFFFFFFFFFFFFFFFF AND DUP2 DUP8 PUSH20 0xFFFFFFFFFFFFFFFFFFFFFFFFFFFFFFFFFFFFFFFF AND PUSH32 0xF9E94386C07F90811A74D5BAFFA05A715AA4D7975477315A2F45187EC1A6D5CA DUP8 PUSH1 0x40 MLOAD PUSH2 0x5BC SWAP2 SWAP1 PUSH2 0x1A74 JUMP JUMPDEST PUSH1 0x40 MLOAD DUP1 SWAP2 SUB SWAP1 LOG4 POP POP POP POP POP POP JUMP JUMPDEST PUSH1 0x2 PUSH1 0x20 MSTORE DUP2 PUSH1 0x0 MSTORE PUSH1 0x40 PUSH1 0x0 KECCAK256 DUP2 DUP2 SLOAD DUP2 LT PUSH2 0x5E8 JUMPI PUSH1 0x0 DUP1 REVERT JUMPDEST SWAP1 PUSH1 0x0 MSTORE PUSH1 0x20 PUSH1 0x0 KECCAK256 ADD PUSH1 0x0 SWAP2 POP SWAP2 POP POP SLOAD DUP2 JUMP JUMPDEST PUSH1 0x1 PUSH1 0x20 MSTORE DUP1 PUSH1 0x0 MSTORE PUSH1 0x40 PUSH1 0x0 KECCAK256 PUSH1 0x0 SWAP2 POP SWAP1 POP DUP1 PUSH1 0x0 ADD SLOAD SWAP1 DUP1 PUSH1 0x1 ADD DUP1 SLOAD PUSH2 0x626 SWAP1 PUSH2 0x17CF JUMP JUMPDEST DUP1 PUSH1 0x1F ADD PUSH1 0x20 DUP1 SWAP2 DIV MUL PUSH1 0x20 ADD PUSH1 0x40 MLOAD SWAP1 DUP2 ADD PUSH1 0x40 MSTORE DUP1 SWAP3 SWAP2 SWAP1 DUP2 DUP2 MSTORE PUSH1 0x20 ADD DUP3 DUP1 SLOAD PUSH2 0x652 SWAP1 PUSH2 0x17CF JUMP JUMPDEST DUP1 ISZERO PUSH2 0x69F JUMPI DUP1 PUSH1 0x1F LT PUSH2 0x674 JUMPI PUSH2 0x100 DUP1 DUP4 SLOAD DIV MUL DUP4 MSTORE SWAP2 PUSH1 0x20 ADD SWAP2 PUSH2 0x69F JUMP JUMPDEST DUP3 ADD SWAP2 SWAP1 PUSH1 0x0 MSTORE PUSH1 0x20 PUSH1 0x0 KECCAK256 SWAP1 JUMPDEST DUP2 SLOAD DUP2 MSTORE SWAP1 PUSH1 0x1 ADD SWAP1 PUSH1 0x20 ADD DUP1 DUP4 GT PUSH2 0x682 JUMPI DUP3 SWAP1 SUB PUSH1 0x1F AND DUP3 ADD SWAP2 JUMPDEST POP POP POP POP POP SWAP1 DUP1 PUSH1 0x2 ADD PUSH1 0x0 SWAP1 SLOAD SWAP1 PUSH2 0x100 EXP SWAP1 DIV PUSH1 0xFF AND SWAP1 POP DUP4 JUMP JUMPDEST PUSH1 0x60 DUP3 PUSH1 0x0 CALLER SWAP1 POP PUSH1 0x0 DUP1 PUSH1 0x0 SWAP1 SLOAD SWAP1 PUSH2 0x100 EXP SWAP1 DIV PUSH20 0xFFFFFFFFFFFFFFFFFFFFFFFFFFFFFFFFFFFFFFFF AND PUSH20 0xFFFFFFFFFFFFFFFFFFFFFFFFFFFFFFFFFFFFFFFF AND PUSH4 0x44276733 DUP4 PUSH1 0x40 MLOAD DUP3 PUSH4 0xFFFFFFFF AND PUSH1 0xE0 SHL DUP2 MSTORE PUSH1 0x4 ADD PUSH2 0x720 SWAP2 SWAP1 PUSH2 0x13AE JUMP JUMPDEST PUSH1 0x20 PUSH1 0x40 MLOAD DUP1 DUP4 SUB DUP2 DUP7 GAS STATICCALL ISZERO DUP1 ISZERO PUSH2 0x73D JUMPI RETURNDATASIZE PUSH1 0x0 DUP1 RETURNDATACOPY RETURNDATASIZE PUSH1 0x0 REVERT JUMPDEST POP POP POP POP PUSH1 0x40 MLOAD RETURNDATASIZE PUSH1 0x1F NOT PUSH1 0x1F DUP3 ADD AND DUP3 ADD DUP1 PUSH1 0x40 MSTORE POP DUP2 ADD SWAP1 PUSH2 0x761 SWAP2 SWAP1 PUSH2 0x13DE JUMP JUMPDEST SWAP1 POP PUSH1 0x40 MLOAD PUSH1 0x20 ADD PUSH2 0x772 SWAP1 PUSH2 0x1462 JUMP JUMPDEST PUSH1 0x40 MLOAD PUSH1 0x20 DUP2 DUP4 SUB SUB DUP2 MSTORE SWAP1 PUSH1 0x40 MSTORE DUP1 MLOAD SWAP1 PUSH1 0x20 ADD KECCAK256 DUP2 EQ DUP1 PUSH2 0x7B8 JUMPI POP PUSH1 0x40 MLOAD PUSH1 0x20 ADD PUSH2 0x79F SWAP1 PUSH2 0x1653 JUMP JUMPDEST PUSH1 0x40 MLOAD PUSH1 0x20 DUP2 DUP4 SUB SUB DUP2 MSTORE SWAP1 PUSH1 0x40 MSTORE DUP1 MLOAD SWAP1 PUSH1 0x20 ADD KECCAK256 DUP2 EQ JUMPDEST DUP1 PUSH2 0x7FC JUMPI POP PUSH1 0x0 DUP1 SHL DUP2 EQ DUP1 ISZERO PUSH2 0x7FB JUMPI POP DUP2 PUSH20 0xFFFFFFFFFFFFFFFFFFFFFFFFFFFFFFFFFFFFFFFF AND DUP4 PUSH20 0xFFFFFFFFFFFFFFFFFFFFFFFFFFFFFFFFFFFFFFFF AND EQ JUMPDEST JUMPDEST PUSH2 0x83B JUMPI PUSH1 0x40 MLOAD PUSH32 0x8C379A000000000000000000000000000000000000000000000000000000000 DUP2 MSTORE PUSH1 0x4 ADD PUSH2 0x832 SWAP1 PUSH2 0x1B08 JUMP JUMPDEST PUSH1 0x40 MLOAD DUP1 SWAP2 SUB SWAP1 REVERT JUMPDEST PUSH1 0x60 DUP6 ISZERO PUSH2 0x853 JUMPI PUSH2 0x84C DUP8 PUSH2 0x91D JUMP JUMPDEST SWAP1 POP PUSH2 0x8E4 JUMP JUMPDEST PUSH1 0x2 PUSH1 0x0 DUP9 PUSH20 0xFFFFFFFFFFFFFFFFFFFFFFFFFFFFFFFFFFFFFFFF AND PUSH20 0xFFFFFFFFFFFFFFFFFFFFFFFFFFFFFFFFFFFFFFFF AND DUP2 MSTORE PUSH1 0x20 ADD SWAP1 DUP2 MSTORE PUSH1 0x20 ADD PUSH1 0x0 KECCAK256 DUP1 SLOAD DUP1 PUSH1 0x20 MUL PUSH1 0x20 ADD PUSH1 0x40 MLOAD SWAP1 DUP2 ADD PUSH1 0x40 MSTORE DUP1 SWAP3 SWAP2 SWAP1 DUP2 DUP2 MSTORE PUSH1 0x20 ADD DUP3 DUP1 SLOAD DUP1 ISZERO PUSH2 0x8DC JUMPI PUSH1 0x20 MUL DUP3 ADD SWAP2 SWAP1 PUSH1 0x0 MSTORE PUSH1 0x20 PUSH1 0x0 KECCAK256 SWAP1 JUMPDEST DUP2 SLOAD DUP2 MSTORE PUSH1 0x20 ADD SWAP1 PUSH1 0x1 ADD SWAP1 DUP1 DUP4 GT PUSH2 0x8C8 JUMPI JUMPDEST POP POP POP POP POP SWAP1 POP JUMPDEST PUSH2 0x8ED DUP2 PUSH2 0xB43 JUMP JUMPDEST SWAP5 POP POP POP POP POP SWAP3 SWAP2 POP POP JUMP JUMPDEST PUSH1 0x0 DUP1 SLOAD SWAP1 PUSH2 0x100 EXP SWAP1 DIV PUSH20 0xFFFFFFFFFFFFFFFFFFFFFFFFFFFFFFFFFFFFFFFF AND DUP2 JUMP JUMPDEST PUSH1 0x60 PUSH1 0x0 PUSH1 0x2 PUSH1 0x0 DUP5 PUSH20 0xFFFFFFFFFFFFFFFFFFFFFFFFFFFFFFFFFFFFFFFF AND PUSH20 0xFFFFFFFFFFFFFFFFFFFFFFFFFFFFFFFFFFFFFFFF AND DUP2 MSTORE PUSH1 0x20 ADD SWAP1 DUP2 MSTORE PUSH1 0x20 ADD PUSH1 0x0 KECCAK256 DUP1 SLOAD SWAP1 POP SWAP1 POP PUSH1 0x0 DUP1 JUMPDEST DUP3 DUP2 LT ISZERO PUSH2 0xA17 JUMPI PUSH1 0x0 PUSH1 0x2 PUSH1 0x0 DUP8 PUSH20 0xFFFFFFFFFFFFFFFFFFFFFFFFFFFFFFFFFFFFFFFF AND PUSH20 0xFFFFFFFFFFFFFFFFFFFFFFFFFFFFFFFFFFFFFFFF AND DUP2 MSTORE PUSH1 0x20 ADD SWAP1 DUP2 MSTORE PUSH1 0x20 ADD PUSH1 0x0 KECCAK256 DUP3 DUP2 SLOAD DUP2 LT PUSH2 0x9C5 JUMPI PUSH2 0x9C4 PUSH2 0x1B28 JUMP JUMPDEST JUMPDEST SWAP1 PUSH1 0x0 MSTORE PUSH1 0x20 PUSH1 0x0 KECCAK256 ADD SLOAD SWAP1 POP PUSH1 0x1 PUSH1 0x0 DUP3 DUP2 MSTORE PUSH1 0x20 ADD SWAP1 DUP2 MSTORE PUSH1 0x20 ADD PUSH1 0x0 KECCAK256 PUSH1 0x2 ADD PUSH1 0x0 SWAP1 SLOAD SWAP1 PUSH2 0x100 EXP SWAP1 DIV PUSH1 0xFF AND PUSH2 0xA09 JUMPI DUP3 DUP1 PUSH2 0xA05 SWAP1 PUSH2 0x1B86 JUMP JUMPDEST SWAP4 POP POP JUMPDEST POP DUP1 DUP1 PUSH1 0x1 ADD SWAP2 POP POP PUSH2 0x96A JUMP JUMPDEST POP PUSH1 0x0 DUP2 PUSH8 0xFFFFFFFFFFFFFFFF DUP2 GT ISZERO PUSH2 0xA34 JUMPI PUSH2 0xA33 PUSH2 0xDEF JUMP JUMPDEST JUMPDEST PUSH1 0x40 MLOAD SWAP1 DUP1 DUP3 MSTORE DUP1 PUSH1 0x20 MUL PUSH1 0x20 ADD DUP3 ADD PUSH1 0x40 MSTORE DUP1 ISZERO PUSH2 0xA62 JUMPI DUP2 PUSH1 0x20 ADD PUSH1 0x20 DUP3 MUL DUP1 CALLDATASIZE DUP4 CALLDATACOPY DUP1 DUP3 ADD SWAP2 POP POP SWAP1 POP JUMPDEST POP SWAP1 POP PUSH1 0x0 DUP1 JUMPDEST DUP5 DUP2 LT ISZERO PUSH2 0xB36 JUMPI PUSH1 0x0 PUSH1 0x2 PUSH1 0x0 DUP10 PUSH20 0xFFFFFFFFFFFFFFFFFFFFFFFFFFFFFFFFFFFFFFFF AND PUSH20 0xFFFFFFFFFFFFFFFFFFFFFFFFFFFFFFFFFFFFFFFF AND DUP2 MSTORE PUSH1 0x20 ADD SWAP1 DUP2 MSTORE PUSH1 0x20 ADD PUSH1 0x0 KECCAK256 DUP3 DUP2 SLOAD DUP2 LT PUSH2 0xAC4 JUMPI PUSH2 0xAC3 PUSH2 0x1B28 JUMP JUMPDEST JUMPDEST SWAP1 PUSH1 0x0 MSTORE PUSH1 0x20 PUSH1 0x0 KECCAK256 ADD SLOAD SWAP1 POP PUSH1 0x1 PUSH1 0x0 DUP3 DUP2 MSTORE PUSH1 0x20 ADD SWAP1 DUP2 MSTORE PUSH1 0x20 ADD PUSH1 0x0 KECCAK256 PUSH1 0x2 ADD PUSH1 0x0 SWAP1 SLOAD SWAP1 PUSH2 0x100 EXP SWAP1 DIV PUSH1 0xFF AND PUSH2 0xB28 JUMPI DUP1 DUP5 DUP5 DUP2 MLOAD DUP2 LT PUSH2 0xB0D JUMPI PUSH2 0xB0C PUSH2 0x1B28 JUMP JUMPDEST JUMPDEST PUSH1 0x20 MUL PUSH1 0x20 ADD ADD DUP2 DUP2 MSTORE POP POP DUP3 DUP1 PUSH2 0xB24 SWAP1 PUSH2 0x1B86 JUMP JUMPDEST SWAP4 POP POP JUMPDEST POP DUP1 DUP1 PUSH1 0x1 ADD SWAP2 POP POP PUSH2 0xA69 JUMP JUMPDEST POP DUP2 SWAP5 POP POP POP POP POP SWAP2 SWAP1 POP JUMP JUMPDEST PUSH1 0x60 PUSH1 0x0 DUP3 MLOAD SWAP1 POP PUSH1 0x0 DUP2 PUSH8 0xFFFFFFFFFFFFFFFF DUP2 GT ISZERO PUSH2 0xB67 JUMPI PUSH2 0xB66 PUSH2 0xDEF JUMP JUMPDEST JUMPDEST PUSH1 0x40 MLOAD SWAP1 DUP1 DUP3 MSTORE DUP1 PUSH1 0x20 MUL PUSH1 0x20 ADD DUP3 ADD PUSH1 0x40 MSTORE DUP1 ISZERO PUSH2 0xBA0 JUMPI DUP2 PUSH1 0x20 ADD JUMPDEST PUSH2 0xB8D PUSH2 0xCD9 JUMP JUMPDEST DUP2 MSTORE PUSH1 0x20 ADD SWAP1 PUSH1 0x1 SWAP1 SUB SWAP1 DUP2 PUSH2 0xB85 JUMPI SWAP1 POP JUMPDEST POP SWAP1 POP PUSH1 0x0 JUMPDEST DUP3 DUP2 LT ISZERO PUSH2 0xCCE JUMPI PUSH1 0x0 DUP6 DUP3 DUP2 MLOAD DUP2 LT PUSH2 0xBC3 JUMPI PUSH2 0xBC2 PUSH2 0x1B28 JUMP JUMPDEST JUMPDEST PUSH1 0x20 MUL PUSH1 0x20 ADD ADD MLOAD SWAP1 POP PUSH1 0x1 PUSH1 0x0 DUP3 DUP2 MSTORE PUSH1 0x20 ADD SWAP1 DUP2 MSTORE PUSH1 0x20 ADD PUSH1 0x0 KECCAK256 PUSH1 0x40 MLOAD DUP1 PUSH1 0x60 ADD PUSH1 0x40 MSTORE SWAP1 DUP2 PUSH1 0x0 DUP3 ADD SLOAD DUP2 MSTORE PUSH1 0x20 ADD PUSH1 0x1 DUP3 ADD DUP1 SLOAD PUSH2 0xC05 SWAP1 PUSH2 0x17CF JUMP JUMPDEST DUP1 PUSH1 0x1F ADD PUSH1 0x20 DUP1 SWAP2 DIV MUL PUSH1 0x20 ADD PUSH1 0x40 MLOAD SWAP1 DUP2 ADD PUSH1 0x40 MSTORE DUP1 SWAP3 SWAP2 SWAP1 DUP2 DUP2 MSTORE PUSH1 0x20 ADD DUP3 DUP1 SLOAD PUSH2 0xC31 SWAP1 PUSH2 0x17CF JUMP JUMPDEST DUP1 ISZERO PUSH2 0xC7E JUMPI DUP1 PUSH1 0x1F LT PUSH2 0xC53 JUMPI PUSH2 0x100 DUP1 DUP4 SLOAD DIV MUL DUP4 MSTORE SWAP2 PUSH1 0x20 ADD SWAP2 PUSH2 0xC7E JUMP JUMPDEST DUP3 ADD SWAP2 SWAP1 PUSH1 0x0 MSTORE PUSH1 0x20 PUSH1 0x0 KECCAK256 SWAP1 JUMPDEST DUP2 SLOAD DUP2 MSTORE SWAP1 PUSH1 0x1 ADD SWAP1 PUSH1 0x20 ADD DUP1 DUP4 GT PUSH2 0xC61 JUMPI DUP3 SWAP1 SUB PUSH1 0x1F AND DUP3 ADD SWAP2 JUMPDEST POP POP POP POP POP DUP2 MSTORE PUSH1 0x20 ADD PUSH1 0x2 DUP3 ADD PUSH1 0x0 SWAP1 SLOAD SWAP1 PUSH2 0x100 EXP SWAP1 DIV PUSH1 0xFF AND ISZERO ISZERO ISZERO ISZERO DUP2 MSTORE POP POP DUP4 DUP4 DUP2 MLOAD DUP2 LT PUSH2 0xCB5 JUMPI PUSH2 0xCB4 PUSH2 0x1B28 JUMP JUMPDEST JUMPDEST PUSH1 0x20 MUL PUSH1 0x20 ADD ADD DUP2 SWAP1 MSTORE POP POP DUP1 DUP1 PUSH1 0x1 ADD SWAP2 POP POP PUSH2 0xBA6 JUMP JUMPDEST POP DUP1 SWAP3 POP POP POP SWAP2 SWAP1 POP JUMP JUMPDEST PUSH1 0x40 MLOAD DUP1 PUSH1 0x60 ADD PUSH1 0x40 MSTORE DUP1 PUSH1 0x0 DUP1 NOT AND DUP2 MSTORE PUSH1 0x20 ADD PUSH1 0x60 DUP2 MSTORE PUSH1 0x20 ADD PUSH1 0x0 ISZERO ISZERO DUP2 MSTORE POP SWAP1 JUMP JUMPDEST PUSH1 0x0 PUSH1 0x40 MLOAD SWAP1 POP SWAP1 JUMP JUMPDEST PUSH1 0x0 DUP1 REVERT JUMPDEST PUSH1 0x0 DUP1 REVERT JUMPDEST PUSH1 0x0 DUP2 SWAP1 POP SWAP2 SWAP1 POP JUMP JUMPDEST PUSH2 0xD26 DUP2 PUSH2 0xD13 JUMP JUMPDEST DUP2 EQ PUSH2 0xD31 JUMPI PUSH1 0x0 DUP1 REVERT JUMPDEST POP JUMP JUMPDEST PUSH1 0x0 DUP2 CALLDATALOAD SWAP1 POP PUSH2 0xD43 DUP2 PUSH2 0xD1D JUMP JUMPDEST SWAP3 SWAP2 POP POP JUMP JUMPDEST PUSH1 0x0 PUSH1 0x20 DUP3 DUP5 SUB SLT ISZERO PUSH2 0xD5F JUMPI PUSH2 0xD5E PUSH2 0xD09 JUMP JUMPDEST JUMPDEST PUSH1 0x0 PUSH2 0xD6D DUP5 DUP3 DUP6 ADD PUSH2 0xD34 JUMP JUMPDEST SWAP2 POP POP SWAP3 SWAP2 POP POP JUMP JUMPDEST PUSH1 0x0 PUSH20 0xFFFFFFFFFFFFFFFFFFFFFFFFFFFFFFFFFFFFFFFF DUP3 AND SWAP1 POP SWAP2 SWAP1 POP JUMP JUMPDEST PUSH1 0x0 PUSH2 0xDA1 DUP3 PUSH2 0xD76 JUMP JUMPDEST SWAP1 POP SWAP2 SWAP1 POP JUMP JUMPDEST PUSH2 0xDB1 DUP2 PUSH2 0xD96 JUMP JUMPDEST DUP2 EQ PUSH2 0xDBC JUMPI PUSH1 0x0 DUP1 REVERT JUMPDEST POP JUMP JUMPDEST PUSH1 0x0 DUP2 CALLDATALOAD SWAP1 POP PUSH2 0xDCE DUP2 PUSH2 0xDA8 JUMP JUMPDEST SWAP3 SWAP2 POP POP JUMP JUMPDEST PUSH1 0x0 DUP1 REVERT JUMPDEST PUSH1 0x0 DUP1 REVERT JUMPDEST PUSH1 0x0 PUSH1 0x1F NOT PUSH1 0x1F DUP4 ADD AND SWAP1 POP SWAP2 SWAP1 POP JUMP JUMPDEST PUSH32 0x4E487B7100000000000000000000000000000000000000000000000000000000 PUSH1 0x0 MSTORE PUSH1 0x41 PUSH1 0x4 MSTORE PUSH1 0x24 PUSH1 0x0 REVERT JUMPDEST PUSH2 0xE27 DUP3 PUSH2 0xDDE JUMP JUMPDEST DUP2 ADD DUP2 DUP2 LT PUSH8 0xFFFFFFFFFFFFFFFF DUP3 GT OR ISZERO PUSH2 0xE46 JUMPI PUSH2 0xE45 PUSH2 0xDEF JUMP JUMPDEST JUMPDEST DUP1 PUSH1 0x40 MSTORE POP POP POP JUMP JUMPDEST PUSH1 0x0 PUSH2 0xE59 PUSH2 0xCFF JUMP JUMPDEST SWAP1 POP PUSH2 0xE65 DUP3 DUP3 PUSH2 0xE1E JUMP JUMPDEST SWAP2 SWAP1 POP JUMP JUMPDEST PUSH1 0x0 PUSH8 0xFFFFFFFFFFFFFFFF DUP3 GT ISZERO PUSH2 0xE85 JUMPI PUSH2 0xE84 PUSH2 0xDEF JUMP JUMPDEST JUMPDEST PUSH2 0xE8E DUP3 PUSH2 0xDDE JUMP JUMPDEST SWAP1 POP PUSH1 0x20 DUP2 ADD SWAP1 POP SWAP2 SWAP1 POP JUMP JUMPDEST DUP3 DUP2 DUP4 CALLDATACOPY PUSH1 0x0 DUP4 DUP4 ADD MSTORE POP POP POP JUMP JUMPDEST PUSH1 0x0 PUSH2 0xEBD PUSH2 0xEB8 DUP5 PUSH2 0xE6A JUMP JUMPDEST PUSH2 0xE4F JUMP JUMPDEST SWAP1 POP DUP3 DUP2 MSTORE PUSH1 0x20 DUP2 ADD DUP5 DUP5 DUP5 ADD GT ISZERO PUSH2 0xED9 JUMPI PUSH2 0xED8 PUSH2 0xDD9 JUMP JUMPDEST JUMPDEST PUSH2 0xEE4 DUP5 DUP3 DUP6 PUSH2 0xE9B JUMP JUMPDEST POP SWAP4 SWAP3 POP POP POP JUMP JUMPDEST PUSH1 0x0 DUP3 PUSH1 0x1F DUP4 ADD SLT PUSH2 0xF01 JUMPI PUSH2 0xF00 PUSH2 0xDD4 JUMP JUMPDEST JUMPDEST DUP2 CALLDATALOAD PUSH2 0xF11 DUP5 DUP3 PUSH1 0x20 DUP7 ADD PUSH2 0xEAA JUMP JUMPDEST SWAP2 POP POP SWAP3 SWAP2 POP POP JUMP JUMPDEST PUSH1 0x0 DUP1 PUSH1 0x0 PUSH1 0x60 DUP5 DUP7 SUB SLT ISZERO PUSH2 0xF33 JUMPI PUSH2 0xF32 PUSH2 0xD09 JUMP JUMPDEST JUMPDEST PUSH1 0x0 PUSH2 0xF41 DUP7 DUP3 DUP8 ADD PUSH2 0xDBF JUMP JUMPDEST SWAP4 POP POP PUSH1 0x20 DUP5 ADD CALLDATALOAD PUSH8 0xFFFFFFFFFFFFFFFF DUP2 GT ISZERO PUSH2 0xF62 JUMPI PUSH2 0xF61 PUSH2 0xD0E JUMP JUMPDEST JUMPDEST PUSH2 0xF6E DUP7 DUP3 DUP8 ADD PUSH2 0xEEC JUMP JUMPDEST SWAP3 POP POP PUSH1 0x40 DUP5 ADD CALLDATALOAD PUSH8 0xFFFFFFFFFFFFFFFF DUP2 GT ISZERO PUSH2 0xF8F JUMPI PUSH2 0xF8E PUSH2 0xD0E JUMP JUMPDEST JUMPDEST PUSH2 0xF9B DUP7 DUP3 DUP8 ADD PUSH2 0xEEC JUMP JUMPDEST SWAP2 POP POP SWAP3 POP SWAP3 POP SWAP3 JUMP JUMPDEST PUSH1 0x0 DUP2 SWAP1 POP SWAP2 SWAP1 POP JUMP JUMPDEST PUSH2 0xFB8 DUP2 PUSH2 0xFA5 JUMP JUMPDEST DUP2 EQ PUSH2 0xFC3 JUMPI PUSH1 0x0 DUP1 REVERT JUMPDEST POP JUMP JUMPDEST PUSH1 0x0 DUP2 CALLDATALOAD SWAP1 POP PUSH2 0xFD5 DUP2 PUSH2 0xFAF JUMP JUMPDEST SWAP3 SWAP2 POP POP JUMP JUMPDEST PUSH1 0x0 DUP1 PUSH1 0x40 DUP4 DUP6 SUB SLT ISZERO PUSH2 0xFF2 JUMPI PUSH2 0xFF1 PUSH2 0xD09 JUMP JUMPDEST JUMPDEST PUSH1 0x0 PUSH2 0x1000 DUP6 DUP3 DUP7 ADD PUSH2 0xDBF JUMP JUMPDEST SWAP3 POP POP PUSH1 0x20 PUSH2 0x1011 DUP6 DUP3 DUP7 ADD PUSH2 0xFC6 JUMP JUMPDEST SWAP2 POP POP SWAP3 POP SWAP3 SWAP1 POP JUMP JUMPDEST PUSH2 0x1024 DUP2 PUSH2 0xD13 JUMP JUMPDEST DUP3 MSTORE POP POP JUMP JUMPDEST PUSH1 0x0 PUSH1 0x20 DUP3 ADD SWAP1 POP PUSH2 0x103F PUSH1 0x0 DUP4 ADD DUP5 PUSH2 0x101B JUMP JUMPDEST SWAP3 SWAP2 POP POP JUMP JUMPDEST PUSH1 0x0 DUP2 MLOAD SWAP1 POP SWAP2 SWAP1 POP JUMP JUMPDEST PUSH1 0x0 DUP3 DUP3 MSTORE PUSH1 0x20 DUP3 ADD SWAP1 POP SWAP3 SWAP2 POP POP JUMP JUMPDEST PUSH1 0x0 JUMPDEST DUP4 DUP2 LT ISZERO PUSH2 0x107F JUMPI DUP1 DUP3 ADD MLOAD DUP2 DUP5 ADD MSTORE PUSH1 0x20 DUP2 ADD SWAP1 POP PUSH2 0x1064 JUMP JUMPDEST PUSH1 0x0 DUP5 DUP5 ADD MSTORE POP POP POP POP JUMP JUMPDEST PUSH1 0x0 PUSH2 0x1096 DUP3 PUSH2 0x1045 JUMP JUMPDEST PUSH2 0x10A0 DUP2 DUP6 PUSH2 0x1050 JUMP JUMPDEST SWAP4 POP PUSH2 0x10B0 DUP2 DUP6 PUSH1 0x20 DUP7 ADD PUSH2 0x1061 JUMP JUMPDEST PUSH2 0x10B9 DUP2 PUSH2 0xDDE JUMP JUMPDEST DUP5 ADD SWAP2 POP POP SWAP3 SWAP2 POP POP JUMP JUMPDEST PUSH1 0x0 DUP2 ISZERO ISZERO SWAP1 POP SWAP2 SWAP1 POP JUMP JUMPDEST PUSH2 0x10D9 DUP2 PUSH2 0x10C4 JUMP JUMPDEST DUP3 MSTORE POP POP JUMP JUMPDEST PUSH1 0x0 PUSH1 0x60 DUP3 ADD SWAP1 POP PUSH2 0x10F4 PUSH1 0x0 DUP4 ADD DUP7 PUSH2 0x101B JUMP JUMPDEST DUP2 DUP2 SUB PUSH1 0x20 DUP4 ADD MSTORE PUSH2 0x1106 DUP2 DUP6 PUSH2 0x108B JUMP JUMPDEST SWAP1 POP PUSH2 0x1115 PUSH1 0x40 DUP4 ADD DUP5 PUSH2 0x10D0 JUMP JUMPDEST SWAP5 SWAP4 POP POP POP POP JUMP JUMPDEST PUSH2 0x1126 DUP2 PUSH2 0x10C4 JUMP JUMPDEST DUP2 EQ PUSH2 0x1131 JUMPI PUSH1 0x0 DUP1 REVERT JUMPDEST POP JUMP JUMPDEST PUSH1 0x0 DUP2 CALLDATALOAD SWAP1 POP PUSH2 0x1143 DUP2 PUSH2 0x111D JUMP JUMPDEST SWAP3 SWAP2 POP POP JUMP JUMPDEST PUSH1 0x0 DUP1 PUSH1 0x40 DUP4 DUP6 SUB SLT ISZERO PUSH2 0x1160 JUMPI PUSH2 0x115F PUSH2 0xD09 JUMP JUMPDEST JUMPDEST PUSH1 0x0 PUSH2 0x116E DUP6 DUP3 DUP7 ADD PUSH2 0xDBF JUMP JUMPDEST SWAP3 POP POP PUSH1 0x20 PUSH2 0x117F DUP6 DUP3 DUP7 ADD PUSH2 0x1134 JUMP JUMPDEST SWAP2 POP POP SWAP3 POP SWAP3 SWAP1 POP JUMP JUMPDEST PUSH1 0x0 DUP2 MLOAD SWAP1 POP SWAP2 SWAP1 POP JUMP JUMPDEST PUSH1 0x0 DUP3 DUP3 MSTORE PUSH1 0x20 DUP3 ADD SWAP1 POP SWAP3 SWAP2 POP POP JUMP JUMPDEST PUSH1 0x0 DUP2 SWAP1 POP PUSH1 0x20 DUP3 ADD SWAP1 POP SWAP2 SWAP1 POP JUMP JUMPDEST PUSH2 0x11BE DUP2 PUSH2 0xD13 JUMP JUMPDEST DUP3 MSTORE POP POP JUMP JUMPDEST PUSH1 0x0 DUP3 DUP3 MSTORE PUSH1 0x20 DUP3 ADD SWAP1 POP SWAP3 SWAP2 POP POP JUMP JUMPDEST PUSH1 0x0 PUSH2 0x11E0 DUP3 PUSH2 0x1045 JUMP JUMPDEST PUSH2 0x11EA DUP2 DUP6 PUSH2 0x11C4 JUMP JUMPDEST SWAP4 POP PUSH2 0x11FA DUP2 DUP6 PUSH1 0x20 DUP7 ADD PUSH2 0x1061 JUMP JUMPDEST PUSH2 0x1203 DUP2 PUSH2 0xDDE JUMP JUMPDEST DUP5 ADD SWAP2 POP POP SWAP3 SWAP2 POP POP JUMP JUMPDEST PUSH2 0x1217 DUP2 PUSH2 0x10C4 JUMP JUMPDEST DUP3 MSTORE POP POP JUMP JUMPDEST PUSH1 0x0 PUSH1 0x60 DUP4 ADD PUSH1 0x0 DUP4 ADD MLOAD PUSH2 0x1235 PUSH1 0x0 DUP7 ADD DUP3 PUSH2 0x11B5 JUMP JUMPDEST POP PUSH1 0x20 DUP4 ADD MLOAD DUP5 DUP3 SUB PUSH1 0x20 DUP7 ADD MSTORE PUSH2 0x124D DUP3 DUP3 PUSH2 0x11D5 JUMP JUMPDEST SWAP2 POP POP PUSH1 0x40 DUP4 ADD MLOAD PUSH2 0x1262 PUSH1 0x40 DUP7 ADD DUP3 PUSH2 0x120E JUMP JUMPDEST POP DUP1 SWAP2 POP POP SWAP3 SWAP2 POP POP JUMP JUMPDEST PUSH1 0x0 PUSH2 0x1279 DUP4 DUP4 PUSH2 0x121D JUMP JUMPDEST SWAP1 POP SWAP3 SWAP2 POP POP JUMP JUMPDEST PUSH1 0x0 PUSH1 0x20 DUP3 ADD SWAP1 POP SWAP2 SWAP1 POP JUMP JUMPDEST PUSH1 0x0 PUSH2 0x1299 DUP3 PUSH2 0x1189 JUMP JUMPDEST PUSH2 0x12A3 DUP2 DUP6 PUSH2 0x1194 JUMP JUMPDEST SWAP4 POP DUP4 PUSH1 0x20 DUP3 MUL DUP6 ADD PUSH2 0x12B5 DUP6 PUSH2 0x11A5 JUMP JUMPDEST DUP1 PUSH1 0x0 JUMPDEST DUP6 DUP2 LT ISZERO PUSH2 0x12F1 JUMPI DUP5 DUP5 SUB DUP10 MSTORE DUP2 MLOAD PUSH2 0x12D2 DUP6 DUP3 PUSH2 0x126D JUMP JUMPDEST SWAP5 POP PUSH2 0x12DD DUP4 PUSH2 0x1281 JUMP JUMPDEST SWAP3 POP PUSH1 0x20 DUP11 ADD SWAP10 POP POP PUSH1 0x1 DUP2 ADD SWAP1 POP PUSH2 0x12B9 JUMP JUMPDEST POP DUP3 SWAP8 POP DUP8 SWAP6 POP POP POP POP POP POP SWAP3 SWAP2 POP POP JUMP JUMPDEST PUSH1 0x0 PUSH1 0x20 DUP3 ADD SWAP1 POP DUP2 DUP2 SUB PUSH1 0x0 DUP4 ADD MSTORE PUSH2 0x131D DUP2 DUP5 PUSH2 0x128E JUMP JUMPDEST SWAP1 POP SWAP3 SWAP2 POP POP JUMP JUMPDEST PUSH1 0x0 DUP2 SWAP1 POP SWAP2 SWAP1 POP JUMP JUMPDEST PUSH1 0x0 PUSH2 0x134A PUSH2 0x1345 PUSH2 0x1340 DUP5 PUSH2 0xD76 JUMP JUMPDEST PUSH2 0x1325 JUMP JUMPDEST PUSH2 0xD76 JUMP JUMPDEST SWAP1 POP SWAP2 SWAP1 POP JUMP JUMPDEST PUSH1 0x0 PUSH2 0x135C DUP3 PUSH2 0x132F JUMP JUMPDEST SWAP1 POP SWAP2 SWAP1 POP JUMP JUMPDEST PUSH1 0x0 PUSH2 0x136E DUP3 PUSH2 0x1351 JUMP JUMPDEST SWAP1 POP SWAP2 SWAP1 POP JUMP JUMPDEST PUSH2 0x137E DUP2 PUSH2 0x1363 JUMP JUMPDEST DUP3 MSTORE POP POP JUMP JUMPDEST PUSH1 0x0 PUSH1 0x20 DUP3 ADD SWAP1 POP PUSH2 0x1399 PUSH1 0x0 DUP4 ADD DUP5 PUSH2 0x1375 JUMP JUMPDEST SWAP3 SWAP2 POP POP JUMP JUMPDEST PUSH2 0x13A8 DUP2 PUSH2 0xD96 JUMP JUMPDEST DUP3 MSTORE POP POP JUMP JUMPDEST PUSH1 0x0 PUSH1 0x20 DUP3 ADD SWAP1 POP PUSH2 0x13C3 PUSH1 0x0 DUP4 ADD DUP5 PUSH2 0x139F JUMP JUMPDEST SWAP3 SWAP2 POP POP JUMP JUMPDEST PUSH1 0x0 DUP2 MLOAD SWAP1 POP PUSH2 0x13D8 DUP2 PUSH2 0xD1D JUMP JUMPDEST SWAP3 SWAP2 POP POP JUMP JUMPDEST PUSH1 0x0 PUSH1 0x20 DUP3 DUP5 SUB SLT ISZERO PUSH2 0x13F4 JUMPI PUSH2 0x13F3 PUSH2 0xD09 JUMP JUMPDEST JUMPDEST PUSH1 0x0 PUSH2 0x1402 DUP5 DUP3 DUP6 ADD PUSH2 0x13C9 JUMP JUMPDEST SWAP2 POP POP SWAP3 SWAP2 POP POP JUMP JUMPDEST PUSH1 0x0 DUP2 SWAP1 POP SWAP3 SWAP2 POP POP JUMP JUMPDEST PUSH32 0x706861726D616369737400000000000000000000000000000000000000000000 PUSH1 0x0 DUP3 ADD MSTORE POP JUMP JUMPDEST PUSH1 0x0 PUSH2 0x144C PUSH1 0xA DUP4 PUSH2 0x140B JUMP JUMPDEST SWAP2 POP PUSH2 0x1457 DUP3 PUSH2 0x1416 JUMP JUMPDEST PUSH1 0xA DUP3 ADD SWAP1 POP SWAP2 SWAP1 POP JUMP JUMPDEST PUSH1 0x0 PUSH2 0x146D DUP3 PUSH2 0x143F JUMP JUMPDEST SWAP2 POP DUP2 SWAP1 POP SWAP2 SWAP1 POP JUMP JUMPDEST PUSH32 0x4F6E6C79206120706861726D61636973742063616E206D61726B206120707265 PUSH1 0x0 DUP3 ADD MSTORE PUSH32 0x736372697074696F6E2061732075736564210000000000000000000000000000 PUSH1 0x20 DUP3 ADD MSTORE POP JUMP JUMPDEST PUSH1 0x0 PUSH2 0x14D3 PUSH1 0x32 DUP4 PUSH2 0x1050 JUMP JUMPDEST SWAP2 POP PUSH2 0x14DE DUP3 PUSH2 0x1477 JUMP JUMPDEST PUSH1 0x40 DUP3 ADD SWAP1 POP SWAP2 SWAP1 POP JUMP JUMPDEST PUSH1 0x0 PUSH1 0x20 DUP3 ADD SWAP1 POP DUP2 DUP2 SUB PUSH1 0x0 DUP4 ADD MSTORE PUSH2 0x1502 DUP2 PUSH2 0x14C6 JUMP JUMPDEST SWAP1 POP SWAP2 SWAP1 POP JUMP JUMPDEST PUSH32 0x507265736372697074696F6E20646F65736E2774206578697374210000000000 PUSH1 0x0 DUP3 ADD MSTORE POP JUMP JUMPDEST PUSH1 0x0 PUSH2 0x153F PUSH1 0x1B DUP4 PUSH2 0x1050 JUMP JUMPDEST SWAP2 POP PUSH2 0x154A DUP3 PUSH2 0x1509 JUMP JUMPDEST PUSH1 0x20 DUP3 ADD SWAP1 POP SWAP2 SWAP1 POP JUMP JUMPDEST PUSH1 0x0 PUSH1 0x20 DUP3 ADD SWAP1 POP DUP2 DUP2 SUB PUSH1 0x0 DUP4 ADD MSTORE PUSH2 0x156E DUP2 PUSH2 0x1532 JUMP JUMPDEST SWAP1 POP SWAP2 SWAP1 POP JUMP JUMPDEST PUSH32 0x507265736372697074696F6E20686173206265656E20616C7265616479207573 PUSH1 0x0 DUP3 ADD MSTORE PUSH32 0x6564210000000000000000000000000000000000000000000000000000000000 PUSH1 0x20 DUP3 ADD MSTORE POP JUMP JUMPDEST PUSH1 0x0 PUSH2 0x15D1 PUSH1 0x23 DUP4 PUSH2 0x1050 JUMP JUMPDEST SWAP2 POP PUSH2 0x15DC DUP3 PUSH2 0x1575 JUMP JUMPDEST PUSH1 0x40 DUP3 ADD SWAP1 POP SWAP2 SWAP1 POP JUMP JUMPDEST PUSH1 0x0 PUSH1 0x20 DUP3 ADD SWAP1 POP DUP2 DUP2 SUB PUSH1 0x0 DUP4 ADD MSTORE PUSH2 0x1600 DUP2 PUSH2 0x15C4 JUMP JUMPDEST SWAP1 POP SWAP2 SWAP1 POP JUMP JUMPDEST PUSH32 0x646F63746F720000000000000000000000000000000000000000000000000000 PUSH1 0x0 DUP3 ADD MSTORE POP JUMP JUMPDEST PUSH1 0x0 PUSH2 0x163D PUSH1 0x6 DUP4 PUSH2 0x140B JUMP JUMPDEST SWAP2 POP PUSH2 0x1648 DUP3 PUSH2 0x1607 JUMP JUMPDEST PUSH1 0x6 DUP3 ADD SWAP1 POP SWAP2 SWAP1 POP JUMP JUMPDEST PUSH1 0x0 PUSH2 0x165E DUP3 PUSH2 0x1630 JUMP JUMPDEST SWAP2 POP DUP2 SWAP1 POP SWAP2 SWAP1 POP JUMP JUMPDEST PUSH32 0x4F6E6C79206120646F63746F722063616E207772697465206120707265736372 PUSH1 0x0 DUP3 ADD MSTORE PUSH32 0x697074696F6E2100000000000000000000000000000000000000000000000000 PUSH1 0x20 DUP3 ADD MSTORE POP JUMP JUMPDEST PUSH1 0x0 PUSH2 0x16C4 PUSH1 0x27 DUP4 PUSH2 0x1050 JUMP JUMPDEST SWAP2 POP PUSH2 0x16CF DUP3 PUSH2 0x1668 JUMP JUMPDEST PUSH1 0x40 DUP3 ADD SWAP1 POP SWAP2 SWAP1 POP JUMP JUMPDEST PUSH1 0x0 PUSH1 0x20 DUP3 ADD SWAP1 POP DUP2 DUP2 SUB PUSH1 0x0 DUP4 ADD MSTORE PUSH2 0x16F3 DUP2 PUSH2 0x16B7 JUMP JUMPDEST SWAP1 POP SWAP2 SWAP1 POP JUMP JUMPDEST PUSH1 0x0 DUP2 PUSH1 0x60 SHL SWAP1 POP SWAP2 SWAP1 POP JUMP JUMPDEST PUSH1 0x0 PUSH2 0x1712 DUP3 PUSH2 0x16FA JUMP JUMPDEST SWAP1 POP SWAP2 SWAP1 POP JUMP JUMPDEST PUSH1 0x0 PUSH2 0x1724 DUP3 PUSH2 0x1707 JUMP JUMPDEST SWAP1 POP SWAP2 SWAP1 POP JUMP JUMPDEST PUSH2 0x173C PUSH2 0x1737 DUP3 PUSH2 0xD96 JUMP JUMPDEST PUSH2 0x1719 JUMP JUMPDEST DUP3 MSTORE POP POP JUMP JUMPDEST PUSH1 0x0 DUP2 SWAP1 POP SWAP2 SWAP1 POP JUMP JUMPDEST PUSH2 0x175D PUSH2 0x1758 DUP3 PUSH2 0xFA5 JUMP JUMPDEST PUSH2 0x1742 JUMP JUMPDEST DUP3 MSTORE POP POP JUMP JUMPDEST PUSH1 0x0 PUSH2 0x176F DUP3 DUP7 PUSH2 0x172B JUMP JUMPDEST PUSH1 0x14 DUP3 ADD SWAP2 POP PUSH2 0x177F DUP3 DUP6 PUSH2 0x174C JUMP JUMPDEST PUSH1 0x20 DUP3 ADD SWAP2 POP PUSH2 0x178F DUP3 DUP5 PUSH2 0x172B JUMP JUMPDEST PUSH1 0x14 DUP3 ADD SWAP2 POP DUP2 SWAP1 POP SWAP5 SWAP4 POP POP POP POP JUMP JUMPDEST PUSH32 0x4E487B7100000000000000000000000000000000000000000000000000000000 PUSH1 0x0 MSTORE PUSH1 0x22 PUSH1 0x4 MSTORE PUSH1 0x24 PUSH1 0x0 REVERT JUMPDEST PUSH1 0x0 PUSH1 0x2 DUP3 DIV SWAP1 POP PUSH1 0x1 DUP3 AND DUP1 PUSH2 0x17E7 JUMPI PUSH1 0x7F DUP3 AND SWAP2 POP JUMPDEST PUSH1 0x20 DUP3 LT DUP2 SUB PUSH2 0x17FA JUMPI PUSH2 0x17F9 PUSH2 0x17A0 JUMP JUMPDEST JUMPDEST POP SWAP2 SWAP1 POP JUMP JUMPDEST PUSH1 0x0 DUP2 SWAP1 POP DUP2 PUSH1 0x0 MSTORE PUSH1 0x20 PUSH1 0x0 KECCAK256 SWAP1 POP SWAP2 SWAP1 POP JUMP JUMPDEST PUSH1 0x0 PUSH1 0x20 PUSH1 0x1F DUP4 ADD DIV SWAP1 POP SWAP2 SWAP1 POP JUMP JUMPDEST PUSH1 0x0 DUP3 DUP3 SHL SWAP1 POP SWAP3 SWAP2 POP POP JUMP JUMPDEST PUSH1 0x0 PUSH1 0x8 DUP4 MUL PUSH2 0x1862 PUSH32 0xFFFFFFFFFFFFFFFFFFFFFFFFFFFFFFFFFFFFFFFFFFFFFFFFFFFFFFFFFFFFFFFF DUP3 PUSH2 0x1825 JUMP JUMPDEST PUSH2 0x186C DUP7 DUP4 PUSH2 0x1825 JUMP JUMPDEST SWAP6 POP DUP1 NOT DUP5 AND SWAP4 POP DUP1 DUP7 AND DUP5 OR SWAP3 POP POP POP SWAP4 SWAP3 POP POP POP JUMP JUMPDEST PUSH1 0x0 PUSH2 0x189F PUSH2 0x189A PUSH2 0x1895 DUP5 PUSH2 0xFA5 JUMP JUMPDEST PUSH2 0x1325 JUMP JUMPDEST PUSH2 0xFA5 JUMP JUMPDEST SWAP1 POP SWAP2 SWAP1 POP JUMP JUMPDEST PUSH1 0x0 DUP2 SWAP1 POP SWAP2 SWAP1 POP JUMP JUMPDEST PUSH2 0x18B9 DUP4 PUSH2 0x1884 JUMP JUMPDEST PUSH2 0x18CD PUSH2 0x18C5 DUP3 PUSH2 0x18A6 JUMP JUMPDEST DUP5 DUP5 SLOAD PUSH2 0x1832 JUMP JUMPDEST DUP3 SSTORE POP POP POP POP JUMP JUMPDEST PUSH1 0x0 SWAP1 JUMP JUMPDEST PUSH2 0x18E2 PUSH2 0x18D5 JUMP JUMPDEST PUSH2 0x18ED DUP2 DUP5 DUP5 PUSH2 0x18B0 JUMP JUMPDEST POP POP POP JUMP JUMPDEST JUMPDEST DUP2 DUP2 LT ISZERO PUSH2 0x1911 JUMPI PUSH2 0x1906 PUSH1 0x0 DUP3 PUSH2 0x18DA JUMP JUMPDEST PUSH1 0x1 DUP2 ADD SWAP1 POP PUSH2 0x18F3 JUMP JUMPDEST POP POP JUMP JUMPDEST PUSH1 0x1F DUP3 GT ISZERO PUSH2 0x1956 JUMPI PUSH2 0x1927 DUP2 PUSH2 0x1800 JUMP JUMPDEST PUSH2 0x1930 DUP5 PUSH2 0x1815 JUMP JUMPDEST DUP2 ADD PUSH1 0x20 DUP6 LT ISZERO PUSH2 0x193F JUMPI DUP2 SWAP1 POP JUMPDEST PUSH2 0x1953 PUSH2 0x194B DUP6 PUSH2 0x1815 JUMP JUMPDEST DUP4 ADD DUP3 PUSH2 0x18F2 JUMP JUMPDEST POP POP JUMPDEST POP POP POP JUMP JUMPDEST PUSH1 0x0 DUP3 DUP3 SHR SWAP1 POP SWAP3 SWAP2 POP POP JUMP JUMPDEST PUSH1 0x0 PUSH2 0x1979 PUSH1 0x0 NOT DUP5 PUSH1 0x8 MUL PUSH2 0x195B JUMP JUMPDEST NOT DUP1 DUP4 AND SWAP2 POP POP SWAP3 SWAP2 POP POP JUMP JUMPDEST PUSH1 0x0 PUSH2 0x1992 DUP4 DUP4 PUSH2 0x1968 JUMP JUMPDEST SWAP2 POP DUP3 PUSH1 0x2 MUL DUP3 OR SWAP1 POP SWAP3 SWAP2 POP POP JUMP JUMPDEST PUSH2 0x19AB DUP3 PUSH2 0x1045 JUMP JUMPDEST PUSH8 0xFFFFFFFFFFFFFFFF DUP2 GT ISZERO PUSH2 0x19C4 JUMPI PUSH2 0x19C3 PUSH2 0xDEF JUMP JUMPDEST JUMPDEST PUSH2 0x19CE DUP3 SLOAD PUSH2 0x17CF JUMP JUMPDEST PUSH2 0x19D9 DUP3 DUP3 DUP6 PUSH2 0x1915 JUMP JUMPDEST PUSH1 0x0 PUSH1 0x20 SWAP1 POP PUSH1 0x1F DUP4 GT PUSH1 0x1 DUP2 EQ PUSH2 0x1A0C JUMPI PUSH1 0x0 DUP5 ISZERO PUSH2 0x19FA JUMPI DUP3 DUP8 ADD MLOAD SWAP1 POP JUMPDEST PUSH2 0x1A04 DUP6 DUP3 PUSH2 0x1986 JUMP JUMPDEST DUP7 SSTORE POP PUSH2 0x1A6C JUMP JUMPDEST PUSH1 0x1F NOT DUP5 AND PUSH2 0x1A1A DUP7 PUSH2 0x1800 JUMP JUMPDEST PUSH1 0x0 JUMPDEST DUP3 DUP2 LT ISZERO PUSH2 0x1A42 JUMPI DUP5 DUP10 ADD MLOAD DUP3 SSTORE PUSH1 0x1 DUP3 ADD SWAP2 POP PUSH1 0x20 DUP6 ADD SWAP5 POP PUSH1 0x20 DUP2 ADD SWAP1 POP PUSH2 0x1A1D JUMP JUMPDEST DUP7 DUP4 LT ISZERO PUSH2 0x1A5F JUMPI DUP5 DUP10 ADD MLOAD PUSH2 0x1A5B PUSH1 0x1F DUP10 AND DUP3 PUSH2 0x1968 JUMP JUMPDEST DUP4 SSTORE POP JUMPDEST PUSH1 0x1 PUSH1 0x2 DUP9 MUL ADD DUP9 SSTORE POP POP POP JUMPDEST POP POP POP POP POP POP JUMP JUMPDEST PUSH1 0x0 PUSH1 0x20 DUP3 ADD SWAP1 POP DUP2 DUP2 SUB PUSH1 0x0 DUP4 ADD MSTORE PUSH2 0x1A8E DUP2 DUP5 PUSH2 0x108B JUMP JUMPDEST SWAP1 POP SWAP3 SWAP2 POP POP JUMP JUMPDEST PUSH32 0x596F752068617665206E6F7420746865207065726D697373696F6E20746F2061 PUSH1 0x0 DUP3 ADD MSTORE PUSH32 0x6363657373207468697320707265736372697074696F6E210000000000000000 PUSH1 0x20 DUP3 ADD MSTORE POP JUMP JUMPDEST PUSH1 0x0 PUSH2 0x1AF2 PUSH1 0x38 DUP4 PUSH2 0x1050 JUMP JUMPDEST SWAP2 POP PUSH2 0x1AFD DUP3 PUSH2 0x1A96 JUMP JUMPDEST PUSH1 0x40 DUP3 ADD SWAP1 POP SWAP2 SWAP1 POP JUMP JUMPDEST PUSH1 0x0 PUSH1 0x20 DUP3 ADD SWAP1 POP DUP2 DUP2 SUB PUSH1 0x0 DUP4 ADD MSTORE PUSH2 0x1B21 DUP2 PUSH2 0x1AE5 JUMP JUMPDEST SWAP1 POP SWAP2 SWAP1 POP JUMP JUMPDEST PUSH32 0x4E487B7100000000000000000000000000000000000000000000000000000000 PUSH1 0x0 MSTORE PUSH1 0x32 PUSH1 0x4 MSTORE PUSH1 0x24 PUSH1 0x0 REVERT JUMPDEST PUSH32 0x4E487B7100000000000000000000000000000000000000000000000000000000 PUSH1 0x0 MSTORE PUSH1 0x11 PUSH1 0x4 MSTORE PUSH1 0x24 PUSH1 0x0 REVERT JUMPDEST PUSH1 0x0 PUSH2 0x1B91 DUP3 PUSH2 0xFA5 JUMP JUMPDEST SWAP2 POP PUSH32 0xFFFFFFFFFFFFFFFFFFFFFFFFFFFFFFFFFFFFFFFFFFFFFFFFFFFFFFFFFFFFFFFF DUP3 SUB PUSH2 0x1BC3 JUMPI PUSH2 0x1BC2 PUSH2 0x1B57 JUMP JUMPDEST JUMPDEST PUSH1 0x1 DUP3 ADD SWAP1 POP SWAP2 SWAP1 POP JUMP INVALID LOG2 PUSH5 0x6970667358 0x22 SLT KECCAK256 0xAE PUSH19 0xA391F256F62A716D893CEDE6E2C67FA6A1BAC2 EQ SGT PUSH1 0xA6 JUMPI BASEFEE 0xE5 0xD8 PUSH31 0x8AF764736F6C634300081C0033000000000000000000000000000000000000 "},"methodIdentifiers":{"getPatientPrescriptions(address,bool)":"b71b71c5","issuePrescription(address,string,string)":"12c21472","markAsUsed(bytes32)":"05dac593","patientPrescriptions(address,uint256)":"733ba56d","prescriptions(bytes32)":"7b464e93","roleManagement()":"b977ba18"}}}}}