{
  "_format": "hh-sol-artifact-1",
  "contractName": "RoleManagement",
  "sourceName": "contracts/RoleManagement.sol",
  "abi": [
    {
      "inputs": [],
      "stateMutability": "nonpayable",
      "type": "constructor"
    },
    {
      "inputs": [
        {
          "internalType": "address",
          "name": "_user",
          "type": "address"
        }
      ],
      "name": "getRole",
      "outputs": [
        {
          "internalType": "bytes32",
          "name": "",
          "type": "bytes32"
        }
      ],
      "stateMutability": "view",
      "type": "function"
    },
    {
      "inputs": [],
      "name": "owner",
      "outputs": [
        {
          "internalType": "address",
          "name": "",
          "type": "address"
        }
      ],
      "stateMutability": "view",
      "type": "function"
    },
    {
      "inputs": [
        {
          "internalType": "address",
          "name": "",
          "type": "address"
        }
      ],
      "name": "roles",
      "outputs": [
        {
          "internalType": "bytes32",
          "name": "",
          "type": "bytes32"
        }
      ],
      "stateMutability": "view",
      "type": "function"
    },
    {
      "inputs": [
        {
          "internalType": "address",
          "name": "_user",
          "type": "address"
        },
        {
          "internalType": "bytes32",
          "name": "_role",
          "type": "bytes32"
        }
      ],
      "name": "setRole",
      "outputs": [],
      "stateMutability": "nonpayable",
      "type": "function"
    }
  ],
  "bytecode": "0x608060405234801561001057600080fd5b50336000806101000a81548173ffffffffffffffffffffffffffffffffffffffff021916908373ffffffffffffffffffffffffffffffffffffffff160217905550604051602001610060906101a5565b6040516020818303038152906040528051906020012060016000735a6338523f5fb4682c2f8e15137b8238c9e4e80c73ffffffffffffffffffffffffffffffffffffffff1673ffffffffffffffffffffffffffffffffffffffff168152602001908152602001600020819055506040516020016100dc90610206565b604051602081830303815290604052805190602001206001600073ae8cb0f40a5f94fe7d3f020829fcd6560312397f73ffffffffffffffffffffffffffffffffffffffff1673ffffffffffffffffffffffffffffffffffffffff1681526020019081526020016000208190555061021b565b600081905092915050565b7f646f63746f720000000000000000000000000000000000000000000000000000600082015250565b600061018f60068361014e565b915061019a82610159565b600682019050919050565b60006101b082610182565b9150819050919050565b7f706861726d616369737400000000000000000000000000000000000000000000600082015250565b60006101f0600a8361014e565b91506101fb826101ba565b600a82019050919050565b6000610211826101e3565b9150819050919050565b6104798061022a6000396000f3fe608060405234801561001057600080fd5b506004361061004c5760003560e01c806306577f2614610051578063442767331461006d5780638da5cb5b1461009d57806399374642146100bb575b600080fd5b61006b600480360381019061006691906102df565b6100eb565b005b6100876004803603810190610082919061031f565b6101c1565b604051610094919061035b565b60405180910390f35b6100a561020a565b6040516100b29190610385565b60405180910390f35b6100d560048036038101906100d0919061031f565b61022e565b6040516100e2919061035b565b60405180910390f35b60008054906101000a900473ffffffffffffffffffffffffffffffffffffffff1673ffffffffffffffffffffffffffffffffffffffff163373ffffffffffffffffffffffffffffffffffffffff1614610179576040517f08c379a000000000000000000000000000000000000000000000000000000000815260040161017090610423565b60405180910390fd5b80600160008473ffffffffffffffffffffffffffffffffffffffff1673ffffffffffffffffffffffffffffffffffffffff168152602001908152602001600020819055505050565b6000600160008373ffffffffffffffffffffffffffffffffffffffff1673ffffffffffffffffffffffffffffffffffffffff168152602001908152602001600020549050919050565b60008054906101000a900473ffffffffffffffffffffffffffffffffffffffff1681565b60016020528060005260406000206000915090505481565b600080fd5b600073ffffffffffffffffffffffffffffffffffffffff82169050919050565b60006102768261024b565b9050919050565b6102868161026b565b811461029157600080fd5b50565b6000813590506102a38161027d565b92915050565b6000819050919050565b6102bc816102a9565b81146102c757600080fd5b50565b6000813590506102d9816102b3565b92915050565b600080604083850312156102f6576102f5610246565b5b600061030485828601610294565b9250506020610315858286016102ca565b9150509250929050565b60006020828403121561033557610334610246565b5b600061034384828501610294565b91505092915050565b610355816102a9565b82525050565b6000602082019050610370600083018461034c565b92915050565b61037f8161026b565b82525050565b600060208201905061039a6000830184610376565b92915050565b600082825260208201905092915050565b7f4f6e6c792074686520636f6e7472616374206f776e65722063616e207065726660008201527f6f726d207468697320616374696f6e0000000000000000000000000000000000602082015250565b600061040d602f836103a0565b9150610418826103b1565b604082019050919050565b6000602082019050818103600083015261043c81610400565b905091905056fea26469706673582212201e900bd9189d3dca14e28b8ab40ef5760f4007225ff0d37108ecaf9968dc581d64736f6c634300081c0033",
  "linkReferences": {},
  "deployedLinkReferences": {}
}