{
  "_format": "hh-sol-artifact-1",
  "contractName": "Prescriptions",
  "sourceName": "contracts/Prescriptions.sol",
  "abi": [
    {
      "inputs": [
        {
          "internalType": "address",
          "name": "_roleManagementAddr",
          "type": "address"
        }
      ],
      "stateMutability": "nonpayable",
      "type": "constructor"
    },
    {
      "anonymous": false,
      "inputs": [
        {
          "indexed": true,
          "internalType": "address",
          "name": "patient",
          "type": "address"
        },
        {
          "indexed": true,
          "internalType": "bytes32",
          "name": "prescr_id",
          "type": "bytes32"
        },
        {
          "indexed": true,
          "internalType": "address",
          "name": "doctor",
          "type": "address"
        },
        {
          "indexed": false,
          "internalType": "string",
          "name": "signature",
          "type": "string"
        }
      ],
      "name": "prescriptionIssued",
      "type": "event"
    },
    {
      "inputs": [
        {
          "internalType": "address",
          "name": "_patient",
          "type": "address"
        },
        {
          "internalType": "bool",
          "name": "_unused",
          "type": "bool"
        }
      ],
      "name": "getPatientPrescriptions",
      "outputs": [
        {
          "components": [
            {
              "internalType": "bytes32",
              "name": "id",
              "type": "bytes32"
            },
            {
              "internalType": "string",
              "name": "encryptedData",
              "type": "string"
            },
            {
              "internalType": "bool",
              "name": "isUsed",
              "type": "bool"
            }
          ],
          "internalType": "struct Prescriptions.Prescription[]",
          "name": "",
          "type": "tuple[]"
        }
      ],
      "stateMutability": "view",
      "type": "function"
    },
    {
      "inputs": [
        {
          "internalType": "address",
          "name": "_patient",
          "type": "address"
        },
        {
          "internalType": "string",
          "name": "_encryptedData",
          "type": "string"
        },
        {
          "internalType": "string",
          "name": "_signature",
          "type": "string"
        }
      ],
      "name": "issuePrescription",
      "outputs": [],
      "stateMutability": "nonpayable",
      "type": "function"
    },
    {
      "inputs": [
        {
          "internalType": "bytes32",
          "name": "_prescrID",
          "type": "bytes32"
        }
      ],
      "name": "markAsUsed",
      "outputs": [],
      "stateMutability": "nonpayable",
      "type": "function"
    },
    {
      "inputs": [
        {
          "internalType": "address",
          "name": "",
          "type": "address"
        },
        {
          "internalType": "uint256",
          "name": "",
          "type": "uint256"
        }
      ],
      "name": "patientPrescriptions",
      "outputs": [
        {
          "internalType": "bytes32",
          "name": "",
          "type": "bytes32"
        }
      ],
      "stateMutability": "view",
      "type": "function"
    },
    {
      "inputs": [
        {
          "internalType": "bytes32",
          "name": "",
          "type": "bytes32"
        }
      ],
      "name": "prescriptions",
      "outputs": [
        {
          "internalType": "bytes32",
          "name": "id",
          "type": "bytes32"
        },
        {
          "internalType": "string",
          "name": "encryptedData",
          "type": "string"
        },
        {
          "internalType": "bool",
          "name": "isUsed",
          "type": "bool"
        }
      ],
      "stateMutability": "view",
      "type": "function"
    },
    {
      "inputs": [],
      "name": "roleManagement",
      "outputs": [
        {
          "internalType": "contract IRoleManagement",
          "name": "",
          "type": "address"
        }
      ],
      "stateMutability": "view",
      "type": "function"
    }
  ],
  "bytecode": "0x608060405234801561001057600080fd5b50604051611d1b380380611d1b833981810160405281019061003291906100db565b806000806101000a81548173ffffffffffffffffffffffffffffffffffffffff021916908373ffffffffffffffffffffffffffffffffffffffff16021790555050610108565b600080fd5b600073ffffffffffffffffffffffffffffffffffffffff82169050919050565b60006100a88261007d565b9050919050565b6100b88161009d565b81146100c357600080fd5b50565b6000815190506100d5816100af565b92915050565b6000602082840312156100f1576100f0610078565b5b60006100ff848285016100c6565b91505092915050565b611c04806101176000396000f3fe608060405234801561001057600080fd5b50600436106100625760003560e01c806305dac5931461006757806312c2147214610083578063733ba56d1461009f5780637b464e93146100cf578063b71b71c514610101578063b977ba1814610131575b600080fd5b610081600480360381019061007c9190610d49565b61014f565b005b61009d60048036038101906100989190610f1a565b61034b565b005b6100b960048036038101906100b49190610fdb565b6105cc565b6040516100c6919061102a565b60405180910390f35b6100e960048036038101906100e49190610d49565b6105fd565b6040516100f8939291906110df565b60405180910390f35b61011b60048036038101906101169190611149565b6106bc565b6040516101289190611303565b60405180910390f35b6101396108f9565b6040516101469190611384565b60405180910390f35b600033905060008060009054906101000a900473ffffffffffffffffffffffffffffffffffffffff1673ffffffffffffffffffffffffffffffffffffffff166344276733836040518263ffffffff1660e01b81526004016101b091906113ae565b602060405180830381865afa1580156101cd573d6000803e3d6000fd5b505050506040513d601f19601f820116820180604052508101906101f191906113de565b905060405160200161020290611462565b604051602081830303815290604052805190602001208114610259576040517f08c379a0000000000000000000000000000000000000000000000000000000008152600401610250906114e9565b60405180910390fd5b6000801b6001600085815260200190815260200160002060000154036102b4576040517f08c379a00000000000000000000000000000000000000000000000000000000081526004016102ab90611555565b60405180910390fd5b6001600084815260200190815260200160002060020160009054906101000a900460ff1615610318576040517f08c379a000000000000000000000000000000000000000000000000000000000815260040161030f906115e7565b60405180910390fd5b600180600085815260200190815260200160002060020160006101000a81548160ff021916908315150217905550505050565b600033905060008060009054906101000a900473ffffffffffffffffffffffffffffffffffffffff1673ffffffffffffffffffffffffffffffffffffffff166344276733836040518263ffffffff1660e01b81526004016103ac91906113ae565b602060405180830381865afa1580156103c9573d6000803e3d6000fd5b505050506040513d601f19601f820116820180604052508101906103ed91906113de565b90506040516020016103fe90611653565b604051602081830303815290604052805190602001208114610455576040517f08c379a000000000000000000000000000000000000000000000000000000000815260040161044c906116da565b60405180910390fd5b600085433360405160200161046c93929190611763565b604051602081830303815290604052805190602001209050604051806060016040528082815260200186815260200160001515815250600160008381526020019081526020016000206000820151816000015560208201518160010190816104d491906119a2565b5060408201518160020160006101000a81548160ff021916908315150217905550905050600260008773ffffffffffffffffffffffffffffffffffffffff1673ffffffffffffffffffffffffffffffffffffffff1681526020019081526020016000208190806001815401808255809150506001900390600052602060002001600090919091909150553373ffffffffffffffffffffffffffffffffffffffff16818773ffffffffffffffffffffffffffffffffffffffff167ff9e94386c07f90811a74d5baffa05a715aa4d7975477315a2f45187ec1a6d5ca876040516105bc9190611a74565b60405180910390a4505050505050565b600260205281600052604060002081815481106105e857600080fd5b90600052602060002001600091509150505481565b6001602052806000526040600020600091509050806000015490806001018054610626906117cf565b80601f0160208091040260200160405190810160405280929190818152602001828054610652906117cf565b801561069f5780601f106106745761010080835404028352916020019161069f565b820191906000526020600020905b81548152906001019060200180831161068257829003601f168201915b5050505050908060020160009054906101000a900460ff16905083565b606082600033905060008060009054906101000a900473ffffffffffffffffffffffffffffffffffffffff1673ffffffffffffffffffffffffffffffffffffffff166344276733836040518263ffffffff1660e01b815260040161072091906113ae565b602060405180830381865afa15801561073d573d6000803e3d6000fd5b505050506040513d601f19601f8201168201806040525081019061076191906113de565b905060405160200161077290611462565b604051602081830303815290604052805190602001208114806107b8575060405160200161079f90611653565b6040516020818303038152906040528051906020012081145b806107fc57506000801b811480156107fb57508173ffffffffffffffffffffffffffffffffffffffff168373ffffffffffffffffffffffffffffffffffffffff16145b5b61083b576040517f08c379a000000000000000000000000000000000000000000000000000000000815260040161083290611b08565b60405180910390fd5b606085156108535761084c8761091d565b90506108e4565b600260008873ffffffffffffffffffffffffffffffffffffffff1673ffffffffffffffffffffffffffffffffffffffff1681526020019081526020016000208054806020026020016040519081016040528092919081815260200182805480156108dc57602002820191906000526020600020905b8154815260200190600101908083116108c8575b505050505090505b6108ed81610b43565b94505050505092915050565b60008054906101000a900473ffffffffffffffffffffffffffffffffffffffff1681565b60606000600260008473ffffffffffffffffffffffffffffffffffffffff1673ffffffffffffffffffffffffffffffffffffffff1681526020019081526020016000208054905090506000805b82811015610a17576000600260008773ffffffffffffffffffffffffffffffffffffffff1673ffffffffffffffffffffffffffffffffffffffff16815260200190815260200160002082815481106109c5576109c4611b28565b5b906000526020600020015490506001600082815260200190815260200160002060020160009054906101000a900460ff16610a09578280610a0590611b86565b9350505b50808060010191505061096a565b5060008167ffffffffffffffff811115610a3457610a33610def565b5b604051908082528060200260200182016040528015610a625781602001602082028036833780820191505090505b5090506000805b84811015610b36576000600260008973ffffffffffffffffffffffffffffffffffffffff1673ffffffffffffffffffffffffffffffffffffffff1681526020019081526020016000208281548110610ac457610ac3611b28565b5b906000526020600020015490506001600082815260200190815260200160002060020160009054906101000a900460ff16610b285780848481518110610b0d57610b0c611b28565b5b6020026020010181815250508280610b2490611b86565b9350505b508080600101915050610a69565b5081945050505050919050565b606060008251905060008167ffffffffffffffff811115610b6757610b66610def565b5b604051908082528060200260200182016040528015610ba057816020015b610b8d610cd9565b815260200190600190039081610b855790505b50905060005b82811015610cce576000858281518110610bc357610bc2611b28565b5b602002602001015190506001600082815260200190815260200160002060405180606001604052908160008201548152602001600182018054610c05906117cf565b80601f0160208091040260200160405190810160405280929190818152602001828054610c31906117cf565b8015610c7e5780601f10610c5357610100808354040283529160200191610c7e565b820191906000526020600020905b815481529060010190602001808311610c6157829003601f168201915b505050505081526020016002820160009054906101000a900460ff161515151581525050838381518110610cb557610cb4611b28565b5b6020026020010181905250508080600101915050610ba6565b508092505050919050565b604051806060016040528060008019168152602001606081526020016000151581525090565b6000604051905090565b600080fd5b600080fd5b6000819050919050565b610d2681610d13565b8114610d3157600080fd5b50565b600081359050610d4381610d1d565b92915050565b600060208284031215610d5f57610d5e610d09565b5b6000610d6d84828501610d34565b91505092915050565b600073ffffffffffffffffffffffffffffffffffffffff82169050919050565b6000610da182610d76565b9050919050565b610db181610d96565b8114610dbc57600080fd5b50565b600081359050610dce81610da8565b92915050565b600080fd5b600080fd5b6000601f19601f8301169050919050565b7f4e487b7100000000000000000000000000000000000000000000000000000000600052604160045260246000fd5b610e2782610dde565b810181811067ffffffffffffffff82111715610e4657610e45610def565b5b80604052505050565b6000610e59610cff565b9050610e658282610e1e565b919050565b600067ffffffffffffffff821115610e8557610e84610def565b5b610e8e82610dde565b9050602081019050919050565b82818337600083830152505050565b6000610ebd610eb884610e6a565b610e4f565b905082815260208101848484011115610ed957610ed8610dd9565b5b610ee4848285610e9b565b509392505050565b600082601f830112610f0157610f00610dd4565b5b8135610f11848260208601610eaa565b91505092915050565b600080600060608486031215610f3357610f32610d09565b5b6000610f4186828701610dbf565b935050602084013567ffffffffffffffff811115610f6257610f61610d0e565b5b610f6e86828701610eec565b925050604084013567ffffffffffffffff811115610f8f57610f8e610d0e565b5b610f9b86828701610eec565b9150509250925092565b6000819050919050565b610fb881610fa5565b8114610fc357600080fd5b50565b600081359050610fd581610faf565b92915050565b60008060408385031215610ff257610ff1610d09565b5b600061100085828601610dbf565b925050602061101185828601610fc6565b9150509250929050565b61102481610d13565b82525050565b600060208201905061103f600083018461101b565b92915050565b600081519050919050565b600082825260208201905092915050565b60005b8381101561107f578082015181840152602081019050611064565b60008484015250505050565b600061109682611045565b6110a08185611050565b93506110b0818560208601611061565b6110b981610dde565b840191505092915050565b60008115159050919050565b6110d9816110c4565b82525050565b60006060820190506110f4600083018661101b565b8181036020830152611106818561108b565b905061111560408301846110d0565b949350505050565b611126816110c4565b811461113157600080fd5b50565b6000813590506111438161111d565b92915050565b600080604083850312156111605761115f610d09565b5b600061116e85828601610dbf565b925050602061117f85828601611134565b9150509250929050565b600081519050919050565b600082825260208201905092915050565b6000819050602082019050919050565b6111be81610d13565b82525050565b600082825260208201905092915050565b60006111e082611045565b6111ea81856111c4565b93506111fa818560208601611061565b61120381610dde565b840191505092915050565b611217816110c4565b82525050565b600060608301600083015161123560008601826111b5565b506020830151848203602086015261124d82826111d5565b9150506040830151611262604086018261120e565b508091505092915050565b6000611279838361121d565b905092915050565b6000602082019050919050565b600061129982611189565b6112a38185611194565b9350836020820285016112b5856111a5565b8060005b858110156112f157848403895281516112d2858261126d565b94506112dd83611281565b925060208a019950506001810190506112b9565b50829750879550505050505092915050565b6000602082019050818103600083015261131d818461128e565b905092915050565b6000819050919050565b600061134a61134561134084610d76565b611325565b610d76565b9050919050565b600061135c8261132f565b9050919050565b600061136e82611351565b9050919050565b61137e81611363565b82525050565b60006020820190506113996000830184611375565b92915050565b6113a881610d96565b82525050565b60006020820190506113c3600083018461139f565b92915050565b6000815190506113d881610d1d565b92915050565b6000602082840312156113f4576113f3610d09565b5b6000611402848285016113c9565b91505092915050565b600081905092915050565b7f706861726d616369737400000000000000000000000000000000000000000000600082015250565b600061144c600a8361140b565b915061145782611416565b600a82019050919050565b600061146d8261143f565b9150819050919050565b7f4f6e6c79206120706861726d61636973742063616e206d61726b20612070726560008201527f736372697074696f6e2061732075736564210000000000000000000000000000602082015250565b60006114d3603283611050565b91506114de82611477565b604082019050919050565b60006020820190508181036000830152611502816114c6565b9050919050565b7f507265736372697074696f6e20646f65736e2774206578697374210000000000600082015250565b600061153f601b83611050565b915061154a82611509565b602082019050919050565b6000602082019050818103600083015261156e81611532565b9050919050565b7f507265736372697074696f6e20686173206265656e20616c726561647920757360008201527f6564210000000000000000000000000000000000000000000000000000000000602082015250565b60006115d1602383611050565b91506115dc82611575565b604082019050919050565b60006020820190508181036000830152611600816115c4565b9050919050565b7f646f63746f720000000000000000000000000000000000000000000000000000600082015250565b600061163d60068361140b565b915061164882611607565b600682019050919050565b600061165e82611630565b9150819050919050565b7f4f6e6c79206120646f63746f722063616e20777269746520612070726573637260008201527f697074696f6e2100000000000000000000000000000000000000000000000000602082015250565b60006116c4602783611050565b91506116cf82611668565b604082019050919050565b600060208201905081810360008301526116f3816116b7565b9050919050565b60008160601b9050919050565b6000611712826116fa565b9050919050565b600061172482611707565b9050919050565b61173c61173782610d96565b611719565b82525050565b6000819050919050565b61175d61175882610fa5565b611742565b82525050565b600061176f828661172b565b60148201915061177f828561174c565b60208201915061178f828461172b565b601482019150819050949350505050565b7f4e487b7100000000000000000000000000000000000000000000000000000000600052602260045260246000fd5b600060028204905060018216806117e757607f821691505b6020821081036117fa576117f96117a0565b5b50919050565b60008190508160005260206000209050919050565b60006020601f8301049050919050565b600082821b905092915050565b6000600883026118627fffffffffffffffffffffffffffffffffffffffffffffffffffffffffffffffff82611825565b61186c8683611825565b95508019841693508086168417925050509392505050565b600061189f61189a61189584610fa5565b611325565b610fa5565b9050919050565b6000819050919050565b6118b983611884565b6118cd6118c5826118a6565b848454611832565b825550505050565b600090565b6118e26118d5565b6118ed8184846118b0565b505050565b5b81811015611911576119066000826118da565b6001810190506118f3565b5050565b601f8211156119565761192781611800565b61193084611815565b8101602085101561193f578190505b61195361194b85611815565b8301826118f2565b50505b505050565b600082821c905092915050565b60006119796000198460080261195b565b1980831691505092915050565b60006119928383611968565b9150826002028217905092915050565b6119ab82611045565b67ffffffffffffffff8111156119c4576119c3610def565b5b6119ce82546117cf565b6119d9828285611915565b600060209050601f831160018114611a0c57600084156119fa578287015190505b611a048582611986565b865550611a6c565b601f198416611a1a86611800565b60005b82811015611a4257848901518255600182019150602085019450602081019050611a1d565b86831015611a5f5784890151611a5b601f891682611968565b8355505b6001600288020188555050505b505050505050565b60006020820190508181036000830152611a8e818461108b565b905092915050565b7f596f752068617665206e6f7420746865207065726d697373696f6e20746f206160008201527f6363657373207468697320707265736372697074696f6e210000000000000000602082015250565b6000611af2603883611050565b9150611afd82611a96565b604082019050919050565b60006020820190508181036000830152611b2181611ae5565b9050919050565b7f4e487b7100000000000000000000000000000000000000000000000000000000600052603260045260246000fd5b7f4e487b7100000000000000000000000000000000000000000000000000000000600052601160045260246000fd5b6000611b9182610fa5565b91507fffffffffffffffffffffffffffffffffffffffffffffffffffffffffffffffff8203611bc357611bc2611b57565b5b60018201905091905056fea2646970667358221220ae72a391f256f62a716d893cede6e2c67fa6a1bac2141360a65748e5d87e8af764736f6c634300081c0033",
  "linkReferences": {},
  "deployedLinkReferences": {}
}